:020000040000fa
:080000000002040000000000f2
:020000040000fa
:1000080090020000900200009002000090020000a0
:100018009002000090020000900200009002000090
:100028009002000090020000900200009002000080
:100038009002000090020000900200009002000070
:020000040000fa
:020000040000fa
:100400000f8020000e7d22000e01880000000000f9
:100410000c000700e0382000010020001100070058
:10042000000020000000e000020032000000020096
:100430000000000086030200000000000040da0017
:100440000000fe004440a900000020000000e00081
:100450000300320000002000a00188004440a800f2
:100460000000060091018800800078000000eb0089
:1004700015003700e280400032a0b4009101ba00bc
:10048000e280400032a0b4009102ba00e280400055
:1004900032a0b4000002eb00472bde00f507b200eb
:1004a000602ce10004003a000059eb008301e900f0
:1004b000fdff3e00040037006128e100010032002a
:1004c0000082eb00040007001101ba000200e00006
:1004d000e8ff3a00000006003159ba008301e90044
:1004e0000c0032002159ba008301e90008003200f3
:1004f0000400e00003003a00e280400032a0b400b3
:10050000f5ff370011d9ba008301e900faff3a007c
:100510008100e800e180400032a0b4000000060045
:080520000040da000000fe00bb
:020000040000fa
:100528000000fa0001208000f08f2f00808060001a
:1005380000402000008070000020880000000000bb
:10054800012080000008200000806000e00f5000bb
:10055800fbff32000f0007002f000700012080007a
:10056800f08f2f000080600000208800000000004d
:1005780001208000000e200000806000e00f500085
:10058800fbff3a0040000700470007000080fa0020
:10059800000006000000fa000164a8008120800025
:1005a80000fc2f00008060007000b30080208800ed
:1005b80081208000f0f32f0080806000000420007c
:1005c80000807000802088009120800070fc2f003f
:1005d8008080600000022000008070009020880069
:1005e80091208000f08f2f00808060000060200044
:1005f80000807000902088009120800080ff2f00ec
:10060800008060000010a0009020880012c4a8009c
:100618000080fa00000006000000fa003120800087
:10062800f0ff21000080600030208800c120800099
:10063800c0ff2f0000806000c020880000fe2f004f
:100648008021880000542100002288008021800039
:100658000030a000802188000122800070ff2f0058
:1006680000806000002288000121800000ff2f0028
:10067800008060000000a000002188001404a80089
:100688000080fa00000006000000fa0030e4a8002c
:1006980031e4a900802180003000b3008021880067
:1006a8000080fa00000006000000fa00011c80002b
:1006b800f0fc2f00808060000002200000807000a5
:1006c800001c8800011c8000c0ff2f000080600013
:1006d800001c880000442000401c8800007e200088
:1006e800201c880070002000501c88002002200078
:1006f800101c88009480a80081e3a8000080fa00fc
:10070800000006000000fa000000eb000080fa007c
:0407180000000600d7
:020000040000fa
:10071c00e0270000200000000000000000000000a6
:020000040000fa
:0200000401f009
:04000000cf0000002d
:020000040000fa
:0200000401f009
:04000400cf00000029
:020000040000fa
:0200000401f009
:0400080007000000ed
:020000040000fa
:0200000401f009
:04000c0000000000f0
:020000040000fa
:0200000401f009
:0400100047000000a5
:020000040000fa
:0200000401f009
:040014005f00000089
:020000040000fa
:0200000401f009
:04001800f7000000ed
:020000040000fa
:0200000401f009
:04001c00dfff000002
:00000001FF
