:020000040000fa
:080000000002040000000000f2
:020000040000fa
:10000800cc02000090020000960200009c02000052
:10001800a2020000a8020000cc020000cc020000ee
:10002800cc02000038130000cc020000cc02000013
:100038000010000088130000cc020000cc02000071
:10004800cc020000cc020000c6040000cc02000074
:10005800cc020000cc02000008100000cc02000016
:10006800cc020000cc020000cc0200006c110000a1
:10007800cc020000cc020000cc020000cc02000040
:1000880010100000cc020000cc020000520c00004e
:10009800cc020000cc020000cc020000cc02000020
:1000a800cc020000cc020000cc020000be0f000011
:1000b80018100000cc020000cc020000cc020000a6
:1000c800cc020000cc020000cc020000cc020000f0
:1000d800cc020000cc020000cc020000cc020000e0
:1000e800cc020000cc020000cc020000cc020000d0
:1000f800cc020000cc020000cc020000cc020000c0
:10010800cc020000cc020000cc020000cc020000af
:10011800cc020000cc020000cc020000cc0200009f
:10012800cc020000cc020000cc020000cc0200008f
:10013800cc020000cc020000cc020000cc0200007f
:10014800cc020000cc020000cc020000cc0200006f
:10015800cc020000cc020000cc020000cc0200005f
:10016800cc020000cc020000cc020000cc0200004f
:10017800cc020000cc020000cc020000cc0200003f
:10018800cc020000cc020000cc020000cc0200002f
:10019800cc020000cc020000cc020000cc0200001f
:1001a800cc020000cc020000cc020000cc0200000f
:1001b800cc020000cc020000cc020000cc020000ff
:1001c800cc020000cc020000cc020000cc020000ef
:1001d800cc020000cc020000cc020000cc020000df
:1001e800cc020000cc020000cc020000cc020000cf
:0801f800cc020000cc02000063
:020000040000fa
:10020800cc020000ae020000b4020000ba020000f6
:10021800c0020000c6020000cc020000cc020000b0
:10022800cc02000038130000cc020000cc02000011
:100238000010000088130000cc020000cc0200006f
:10024800cc020000cc020000c6040000cc02000072
:10025800cc020000cc02000008100000cc02000014
:10026800cc020000cc020000cc0200006c1100009f
:10027800cc020000cc020000cc020000cc0200003e
:1002880010100000cc020000cc020000520c00004c
:10029800cc020000cc020000cc020000cc0200001e
:1002a800cc020000cc020000cc020000be0f00000f
:1002b80018100000cc020000cc020000cc020000a4
:1002c800cc020000cc020000cc020000cc020000ee
:1002d800cc020000cc020000cc020000cc020000de
:1002e800cc020000cc020000cc020000cc020000ce
:1002f800cc020000cc020000cc020000cc020000be
:10030800cc020000cc020000cc020000cc020000ad
:10031800cc020000cc020000cc020000cc0200009d
:10032800cc020000cc020000cc020000cc0200008d
:10033800cc020000cc020000cc020000cc0200007d
:10034800cc020000cc020000cc020000cc0200006d
:10035800cc020000cc020000cc020000cc0200005d
:10036800cc020000cc020000cc020000cc0200004d
:10037800cc020000cc020000cc020000cc0200003d
:10038800cc020000cc020000cc020000cc0200002d
:10039800cc020000cc020000cc020000cc0200001d
:1003a800cc020000cc020000cc020000cc0200000d
:1003b800cc020000cc020000cc020000cc020000fd
:1003c800cc020000cc020000cc020000cc020000ed
:1003d800cc020000cc020000cc020000cc020000dd
:1003e800cc020000cc020000cc020000cc020000cd
:0803f800cc020000cc02000061
:020000040000fa
:100400000f8420000e7722000e01880000000000fb
:100410000c000700e09421000100200011000700fb
:10042000000020000000e000020032000000020096
:1004300000000000a4110200000000000040da00eb
:100440000000fe004440a900000020000000e00081
:100450000300320000002000a00188004440a800f2
:100460000000060091018800800078000000eb0089
:1004700015003700e280400032a0b4009101ba00bc
:10048000e280400032a0b4009102ba00e280400055
:1004900032a0b4000002eb00472bde00f507b200eb
:1004a000602ce10004003a000059eb008301e900f0
:1004b000fdff3e00040037006128e100010032002a
:1004c0000082eb00040007001101ba000200e00006
:1004d000e8ff3a00000006003159ba008301e90044
:1004e0000c0032002159ba008301e90008003200f3
:1004f0000400e00003003a00e280400032a0b400b3
:10050000f5ff370011d9ba008301e900faff3a007c
:100510008100e800e180400032a0b4000000060045
:100520000000fa008020a900ffff37000000fa0059
:100530008060a900ffff37000000fa008040a9009a
:10054000ffff37000000fa008080a900ffff37009e
:100550000000fa0080a0a900ffff37000000fa00a9
:100560008020a900ffff37000000fa008060a9008a
:10057000ffff37000000fa008040a900ffff3700ae
:100580000000fa008080a900ffff37000000fa0099
:1005900080a0a900ffff37000040da000000fe0045
:020000040000fa
:1005a0000000fa004460a90040a7a9000080eb0009
:1005b000601988007007a800c122a900d062a900b4
:1005c000d082a900c522a800d462a800d482a800c5
:1005d000c882a900c102a900c062a900c042a90046
:1005e000d042a900d022a900d002a900c862a90067
:1005f000cc82a800c502a800c462a800c442a8001a
:10060000d442a800d422a800d402a800cc62a8003a
:10061000c022a900c002a900c9e2a900c9c2a9005c
:10062000c0e2a900c142a900c422a800c402a800d7
:10063000cde2a800cdc2a800c4e2a800c542a8002f
:10064000c982a9008540a9009540a9001012800028
:100650003000b300101288001112800030fe2f000d
:10066000008060000040a000101288004382a900b2
:100670004362a9004342a8004322a9004302a90003
:1006800042c2a90042a2a80041e2a8008540a900f8
:100690009540a800113a8000f0fb2f000081600017
:1006a0006004200071052000237420008049780038
:1006b00081497800824978005136800000fe2f0081
:1006c000008060000030a000503688005136800065
:1006d000f00f2e008080600000702000008070000d
:1006e00050368800113a800000042000008170001c
:1006f00060042000710520002374200080497800e8
:1007000081497800824978000032200001002000f1
:10071000f60a0700f01120004012880000052000b2
:1007200001002000f10a07000080eb004012880061
:100730000032200001002000ec0a0700cd82a80052
:100740000032200001002000e80a0700cd82a90045
:100750000032200001002000e40a07000000eb0046
:10076000401288000005200001002000df0a070079
:100770000000eb0040128800003220000100200041
:10078000da0a0700cd82a800003220000100200014
:10079000d60a0700cd82a900d122a800d102a90063
:1007a000113a8000f0fb2f000081600060042000ff
:1007b0007105200023742000804978008149780069
:1007c00082497800a135800000fe2f000080600083
:1007d0009001b300a0358800c136800000fe2f00d4
:1007e000008060000040a000c0368800113a800000
:1007f00000042000008170006004200071052000ca
:10080000237420008049780081497800824978006b
:10081000d522a900d502a900c902a900d0a2a8002a
:10082000c8e2a800d4a2a900cce2a90062e0a80016
:100830006340a80061058000f0ff28008080600010
:100840000000250000807000600588009660a90007
:100850008660a9001fe1a9001e21a9001ec1a900f0
:10086000f1088000f0fc2f0000806000f008880094
:1008700081058000f0ff28008080600000002300d8
:1008800000807000800588008760a9009760a8003c
:100890000080fa00000006000600fa00b002200006
:1008a000000f780020002000100798002000200092
:1008b000200798001e80e900303a88001e00900052
:1008c0000040780000c0e900634060000080fb0049
:1008d000630060004600dd00223a8000f1f32f0043
:1008e0008100610000807000203a88002e00900096
:1008f0000040780000c0e9007f4060000080fb00fd
:100900007f006000223a800001fe2f00810061001c
:1009100000807000203a880012002000800720002c
:10092000a1092000337420008049780081497800b3
:100930008249780012002000600420007105200028
:10094000237420008049780081497800824978002a
:1009500000000000113a8000000027008080600045
:1009600000002100808f5000faff3a0000000000d4
:10097000113a80000002200000806000e00f50006b
:10098000fbff32000080fa00000006000000fa00c1
:100990008540a9000080fa00004006000400fa002b
:1009a000204798000000eb00000f78002000200096
:1009b0004012880080072000010020004b0a070039
:1009c000f0ff2300401288000032200001002000c8
:1009d000460a0700f0f12f0040128800800720002f
:1009e00001002000410a07000080eb00401288004f
:1009f00000322000010020003c0a0700cd82a80040
:100a00000032200001002000380a0700cd82a90032
:100a1000000a200001002000340a07002e40900048
:100a20000000fb006101b9000080eb008080eb005a
:100a30000200400083804800720020000300200074
:100a4000820f5000838f580025033e000060010094
:100a500007003700af00370052013700fa013700b6
:100a6000db023700170337001a033700190337007a
:100a700010002000401288008007200001002000a4
:100a80001a0a070000002c004012880000322000e3
:100a900001002000150a070020e92000401288000c
:100aa0008007200001002000100a07004092240067
:100ab0004012880000322000010020000b0a0700cd
:100ac000cd82a8000032200001002000070a0700a4
:100ad000cd82a90000902000d1032000030a070066
:100ae0000000eb0040128800800720000100200079
:100af000fe09070000002c00401288000032200090
:100b000001002000f909070020c9200040128800d8
:100b10008007200001002000f40907004092240013
:100b2000401288000032200001002000ef09070079
:100b3000cd82a8000032200001002000eb09070050
:100b4000cd82a90000902000d1032000e709070012
:100b50000000eb0040128800800720000100200008
:100b6000e209070000002c0040128800003220003b
:100b700001002000dd090700200923004012880041
:100b80008007200001002000d809070040922400bf
:100b9000401288000032200001002000d309070025
:100ba000cd82a8000032200001002000cf090700fc
:100bb000cd82a90000902000d1032000cb090700be
:100bc0000000eb0040128800800720000100200098
:100bd000c6090700000023004012880000322000f0
:100be00001002000c109070020092c0040128800e4
:100bf0008007200001002000bc090700409224006b
:100c0000401288000032200001002000b7090700d0
:100c1000cd82a8000032200001002000b3090700a7
:100c2000cd82a90000902000d1032000af09070069
:100c30000000eb0040128800800720000100200027
:100c4000aa09070030c020004012880000322000ae
:100c500001002000a509070020092000401288009b
:100c60008007200001002000a00907004092240016
:100c70004012880000322000010020009b0907007c
:100c8000cd82a80000322000010020009709070053
:100c9000cd82a90000902000d10320009309070015
:100ca0000000eb00401288008007200001002000b7
:100cb0008e090700c0032000401288000032200087
:100cc0000100200089090700200920004012880047
:100cd00080072000010020008409070040922400c2
:100ce0004012880000322000010020007f09070028
:100cf000cd82a80000322000010020007b090700ff
:100d0000cd82a90000902000d103200077090700c0
:100d10007302370038c8bf000000fb006101b90052
:100d20000080eb008080eb000200400083804800e0
:100d30004200200003002000820f5000838f5800e3
:100d400066023e000060010004003700200037000a
:100d50003c003700580037007400370010002000b6
:100d60004012880080072000010020005f09070072
:100d700000002c00401288008007200001002000a5
:100d80005a0907002009200040128800800720002f
:100d900001002000550907004092240040128800fd
:100da000800720000100200050090700cd82a80024
:100db000000a2000010020004c090700cd82a90094
:100dc000000a2000010020004809070074003700d5
:100dd0001000200040128800800720000100200041
:100de0004209070000c02f00401288008007200041
:100df000010020003d090700200920004012880062
:100e000080072000010020003809070040922400dc
:100e100040128800800720000100200033090700ed
:100e2000cd82a800000a2000010020002f09070041
:100e3000cd82a900000a2000010020002b09070034
:100e40005700370010002000401288008007200063
:100e5000010020002509070000fc2f004012880037
:100e60008007200001002000200907002009200041
:100e70004012880080072000010020001b090700a5
:100e800040922400401288008007200001002000ca
:100e900016090700cd82a800000a200001002000ea
:100ea00012090700cd82a900000a200001002000dd
:100eb0000e0907003a003700100020004012880099
:100ec000800720000100200008090700c0ff2f0054
:100ed000401288008007200001002000030907005d
:100ee0002009200040128800800720000100200017
:100ef000fe0807004092240040128800800720006e
:100f000001002000f9080700cd82a800000a200097
:100f100001002000f5080700cd82a900000a20008a
:100f200001002000f10807001d003700100020001c
:100f3000401288008007200001002000eb08070015
:100f40000080eb0040128800800720000100200094
:100f5000e608070020e92f004012880080072000e3
:100f600001002000e10807004092240040128800a0
:100f70008007200001002000dc080700cd82a800c7
:100f8000000a200001002000d8080700cd82a90037
:100f9000000a200001002000d40807000000000023
:100fa000cf0137000000eb004012880080072000ce
:100fb00001002000cd080700c00320004012880077
:100fc0008007200001002000c80807004002200020
:100fd000401288008007200001002000c30807009d
:100fe00090242900401288000032200001002000d7
:100ff000be080700cd82a8000032200001002000ba
:10100000ba080700cd82a90000202100a107200016
:10101000b60807000000eb0040128800800720009f
:1010200001002000b1080700300c200040128800a9
:101030008007200001002000ac08070040022000cb
:10104000401288008007200001002000a708070048
:101050009024290040128800003220000100200066
:10106000a2080700cd82a800003220000100200065
:101070009e080700cd82a90000202100a1072000c2
:101080009a0807000000eb0040128800800720004b
:101090000100200095080700003020004012880061
:1010a00080072000010020009008070040022c006b
:1010b0004012880080072000010020008b080700f4
:1010c00090242900401288000032200001002000f6
:1010d00086080700cd82a800003220000100200011
:1010e00082080700cd82a90000202100a10720006e
:1010f0007e0807000000eb004012880080072000f7
:10110000010020007908070000c02000401288007c
:10111000800720000100200074080700400223001f
:101120004012880080072000010020006f0807009f
:101130009024290040128800003220000100200085
:101140006a080700cd82a8000032200001002000bc
:1011500066080700cd82a90000202100a107200019
:10116000620807000000eb004012880080072000a2
:10117000010020005d0807000000230040128800e5
:1011800080072000010020005808070040c220000e
:10119000401288008007200001002000530807004b
:1011a0009024290040128800003220000100200015
:1011b0004e080700cd82a800003220000100200068
:1011c0004a080700cd82a90000202100a1072000c5
:1011d0004608070010002000401288008007200009
:1011e000010020004108070000002c004012880088
:1011f00080072000010020003c080700406220001a
:1012000040128800800720000100200037080700f6
:1012100090242900401288000032200001002000a4
:1012200032080700cd82a800003220000100200013
:101230002e080700cd82a90000202100a107200070
:101240002a080700260137000000eb004012880042
:10125000800720000100200024080700c0032000b0
:101260004012880080072000010020001f080700ae
:101270009004200040128800800720000100200018
:101280001a0807002049220040128800003220007e
:101290000100200015080700cd82a80000322000c0
:1012a0000100200011080700cd82a90000202100c4
:1012b000a10720000d0807000000eb004012880085
:1012c000800720000100200008080700300c2000e3
:1012d000401288008007200001002000030807005a
:1012e00090042000401288008007200001002000a8
:1012f000fe0707002049220040128800003220002b
:1013000001002000f9070700cd82a800003220006c
:1013100001002000f5070700cd82a9000020210070
:10132000a1072000f10707000000eb004012880031
:101330008007200001002000ec070700003020009b
:10134000401288008007200001002000e707070006
:1013500090042c004012880080072000010020002b
:10136000e2070700204922004012880000322000d6
:1013700001002000dd070700cd82a8000032200018
:1013800001002000d9070700cd82a900002021001c
:10139000a1072000d50707000000eb0040128800dd
:1013a0008007200001002000d007070000c02000b7
:1013b000401288008007200001002000cb070700b2
:1013c00090042300401288008007200001002000c4
:1013d000c607070020492200401288000032200082
:1013e00001002000c1070700cd82a80000322000c4
:1013f00001002000bd070700cd82a90000202100c8
:10140000a1072000b90707000000eb004012880088
:101410008007200001002000b4070700000023001f
:10142000401288008007200001002000af0707005d
:1014300090c4200040128800800720000100200096
:10144000aa0707002049220040128800003220002d
:1014500001002000a5070700cd82a800003220006f
:1014600001002000a1070700cd82a9000020210073
:10147000a10720009d0707001000200040128800ef
:1014800080072000010020009807070000002c00c2
:101490004012880080072000010020009307070009
:1014a0009064200040128800800720000100200086
:1014b0008e070700204922004012880000322000d9
:1014c0000100200089070700cd82a800003220001b
:1014d0000100200085070700cd82a900002021001f
:1014e000a1072000810707007d00370010002000c1
:1014f0004012880080072000010020007b070700c1
:10150000505525004012880080072000010020006f
:1015100076070700208925004012880080072000f8
:10152000010020007107070040922400401288004b
:1015300080072000010020006c070700cd82a80072
:10154000000a20000100200068070700cd82a900e2
:1015500000202100a1072000640707000000eb0025
:101560004012880080072000010020005f0707006c
:10157000a0aa2a0040128800800720000100200055
:101580005a07070040a22a00401288008007200066
:101590000100200055070700902429004012880010
:1015a000800720000100200050070700cd82a8001e
:1015b000000a2000010020004c070700cd82a9008e
:1015c00000202100a1072000480707001e0fe800a7
:1015d0001e007800e10f5000c4ff360040003700c5
:1015e0000000eb004012880080072000010020006e
:1015f0003e0707000000eb00401288008007200033
:10160000010020003907070020092000401288004f
:1016100080072000010020003407070040922400ca
:101620004012880080072000010020002f070700db
:10163000cd82a800000a2000010020002b0707002f
:10164000cd82a90000202100a10720002707070064
:1016500010002000401288008007200001002000b8
:10166000220707000080eb0040128800800720005e
:10167000010020001d07070040e22f0040128800f3
:10168000800720000100200018070700902429008f
:101690004012880080072000010020001307070087
:1016a000cd82a800000a2000010020000f070700db
:1016b000cd82a90000202100a10720000b07070010
:1016c0001e0fe8001e007800e50f5000c4ff360032
:1016d0000300370000000000010037000000000098
:1016e0002e409000e24f50001c0032000000eb0042
:1016f000401288008007200001002000fb06070040
:101700000000eb00401288000032200001002000a1
:10171000f6060700200920004012880080072000fc
:1017200001002000f10607004092240040128800ca
:101730000032200001002000ec060700cd82a80046
:101740000032200001002000e8060700cd82a90039
:10175000000a200001002000e40607000080fa00d3
:10176000000006000000fa0000482800e101200007
:10177000de060700cc82a800c502a800c462a8004b
:10178000c442a800d442a800d422a800d402a800d1
:10179000cc62a8000080fa00000006000200fa00f7
:1017a000004f78001e00fb006101b9000080eb00d3
:1017b0008080eb000200400083804800720020001f
:1017c00003002000820f5000838f580021003e004c
:1017d0000060010007003700090037000b003700e8
:1017e0000d0037000f0037001100370013003700dd
:1017f00015003700cc82a900daff07001e00370071
:10180000c502a900d7ff07001b003700c462a9006a
:10181000d4ff070018003700c442a900d1ff070019
:1018200015003700d442a900ceff07001200370090
:10183000d422a900cbff07000f003700d402a90073
:10184000c8ff07000c003700cc62a900c5ff0700e5
:1018500009003700cc82a800c502a800c462a80015
:10186000c442a800d442a800d422a800d402a800f0
:10187000cc62a800000000000080fa000000060012
:101880000000fa000000eb00a00888000080eb00d8
:10189000d00888001fe1a8009660a8000080fa0028
:1018a0000000060000a0fe003600f800849fbe0085
:1018b000869fbe000000fa008760a90039c8bf00fb
:1018c000e14f50003c003200704180000000e80011
:1018d0007041880070418000b1672000810f500086
:1018e0001f003200b1672000810f500007003c004c
:1018f00091222000810f50000b0032002145200072
:10190000810f50000f0032002c003700418a200068
:10191000810f500019003200f1ac2000810f5000ff
:101920001d0032002500370027c8bf009bff0700bd
:1019300027c8bf0019fc070020c0b30038e8b70073
:101940001e00370027c8bf0094ff070027c8bf004c
:1019500012fc070030c0b30038e8b70017003700aa
:1019600027c8bf008dff070027c8bf000bfc07007a
:1019700040c0b30038e8b7001000370027c8bf00e8
:1019800086ff070027c8bf0004fc070050c0b30053
:1019900038e8b7000900370027c8bf007fff0700fd
:1019a0000000eb00704188001fe1a9009660a900cb
:1019b0000000000001003700000000000080fa0075
:1019c0004f03be004f02be003600f9000080fe004b
:1019d000004006000000fa0091168000000220007e
:1019e00000806000e00f50000a00320000a82100d3
:1019f000610020003d0607009116800000022000d3
:101a000000806000e00f50000200320010c0b30000
:101a1000010037000040eb000080fa0000000600e3
:101a20000800fa00008fbe002207980033079800d4
:101a30002e019000be0190000002eb008000eb0040
:101a40000000eb00980407001e0078008002eb0005
:101a50000002eb008001eb00000178002100200073
:101a60000000eb00520507000080fa0000000600ad
:101a70000c00fa00500798000000eb0010079800d7
:101a80000000eb00200798006000b80030079800c5
:101a9000410798005e009000304090000080fb00fd
:101aa000c400dd00007822000080400010007800b3
:101ab00061006000100798005e00900030409000c8
:101ac0000080fb00c400dd000078220000804000a0
:101ad0001000780062006000200798001e0090004f
:101ae000e00f500012003a005e009000304090007d
:101af0000080fb00c400dd00007822000080400070
:101b000090007800c0ff2100008060004200de00ed
:101b1000010020005e019000200198003101980032
:101b2000de00900040c0b300a04098006100370084
:101b30005e009000304090000080fb00c400dd009b
:101b40000078220000804000100078006101b80099
:101b5000c0ff21000100200002027800030178008c
:101b6000800178000100780003026200000061003b
:101b700001002000c000dd00000020000001be00c8
:101b80006120b80000017100818171003207980066
:101b9000430798003e009000ce009000c000dd009a
:101ba000000020005e0190002001980031019800a3
:101bb0005e009000304090000080fb004400dd009b
:101bc0008080e8000078220000804000100078004b
:101bd0006101b800f0ff200001002000020278003f
:101be00003017800800178000100780003026200a0
:101bf0000000610001002000c000dd0000002000a6
:101c00000001be006120b8000001710081817100f7
:101c100032079800430798005e0090002001900072
:101c2000b00190003e029000ce0290004628dd00f8
:101c3000ca20de00810070004620dd000200400066
:101c4000838048005e0190002001980031019800d7
:101c50005e009000304090000080fb004400dd00fa
:101c6000e40040000078220000804000100078006e
:101c70004a00de000100200030079800410798006c
:101c80005e00900020019000b00190003e009000a6
:101c9000ce00900002004000838048005e0190006a
:101ca0002001980031019800de00900030c0b300a0
:101cb000a04098002e009000e10f500004003a0070
:101cc000de00900020c0b300904098006b00370009
:101cd000de00900010c0b300904098005e009000bd
:101ce000304090000080fb004400dd00e600400032
:101cf000007822000080400010007800004078004a
:101d0000de009000804898005e0090003040900017
:101d10000080fb004400dd00e60040000078220067
:101d200000804000100078004800de00004078008d
:101d3000de009000904898005e00900030409000d7
:101d40000080fb004400dd00e80040000078220035
:101d5000008040001000780000407800de00900015
:101d6000a04898005e009000304090000080fb008a
:101d70004400dd00e80040000078220000804000c0
:101d8000100078004800de0000407800de0090007f
:101d9000b04898005e009000304090000080fb004a
:101da0004400dd00ea00400000782200008040008e
:101db0001000780000407800de009000c0489800d5
:101dc0005e009000304090000080fb004400dd0089
:101dd000ea004000007822000080400010007800f7
:101de0004800de0000407800de009000d0489800f7
:101df0005e009000304090000080fb004400dd0059
:101e0000ec004000007822000080400010007800c4
:101e100000407800de009000e04898005e009000ee
:101e2000304090000080fb004400dd00ec004000ea
:101e30000078220000804000100078004800de009a
:101e400000407800de009000f04898005e009000ae
:101e5000304090000080fb004400dd00e4004000c2
:101e600000782200008040001000780000407800d8
:101e70006f406000de009000805098000000eb0092
:101e8000000f78002b003700201680004900de008c
:101e9000614060000004a200614060000080fb001f
:101ea000610060004900dd0022168000f1df2f0094
:101eb000810061000080700020168800a01680005c
:101ec0004300de00614060000004a2006140600049
:101ed0000080fb00610060004300dd00a21680006e
:101ee00071ff2f008100610000807000a016880043
:101ef000a01680004400de00614060000004a200e3
:101f0000614060000080fb00610060004400dd0073
:101f1000a2168000f1fe2f00810061000080700099
:101f2000a01688000068290081092000ef0407003e
:101f30001e0fe8001e007800e40f5000d2ff3400ae
:101f40000080fa00000006000000fa000000eb002c
:101f5000200488000000eb00300488000000eb0043
:101f6000400488000000eb00500488000000eb00f3
:101f7000600488000080fa00000006003600f800c7
:101f8000809fbe00829fbe00849fbe00869fbe00d1
:101f90000000fa008860a900502080006100600005
:101fa000e00f5000010032000a04a9005020800018
:101fb00062006000e00f50000a0032000021800043
:101fc00062006000e00f50000300320010c0b30058
:101fd00015e8b7002024a90020812000a4fe0700f6
:101fe0000a24a9000080fa004f03be004f02be0081
:101ff0004f01be004f00be003600f9000040060051
:102000000000fa008480a9000080fa000040060069
:102010000000fa0085c0a9000080fa000040060018
:102020000000fa008700a9000080fa0000400600c6
:102030000000fa008880a9000080fa000040060035
:102040000000fa00cd02a800801620000100200048
:10205000a6040700cd02a900001420000100200002
:10206000a20407000080fa00000006000000fa0049
:10207000cd02a90080162000010020009b0407006b
:10208000cd02a900001420000100200097040700e1
:102090000080fa00000006000400fa001007980013
:1020a0000000eb00000f780002003700efff070090
:1020b0001e0fe8001e0090009e007800808f5000e8
:1020c000faff35000080fa00000006000400fa0064
:1020d000100798000000eb00000f780002003700a6
:1020e000d7ff07001e0fe8001e0090009e0078003a
:1020f000808f5000faff35000080fa0000000600d3
:102100000200fa00004f780028c8bf009e40780007
:1021100080cf50000e003a00a0002000ebff070027
:10212000c0082000dcff070040012000e7ff070097
:1021300020082000d8ff070040012000e3ff07002f
:1021400020082000d4ff070060092000dfff0700ff
:1021500029c8bf009e40780080cf50000e003a0092
:10216000a0002000d9ff0700c0082000caff070018
:10217000e0012000d5ff070080072000c6ff070010
:10218000e0012000d1ff070080072000c2ff070008
:1021900060092000cdff07000080fa000000060063
:1021a0000000fa0091418000b041800000805000a2
:1021b000904188009141800080382100808f50003c
:1021c00007003600c402a800c422a800cde2a8007f
:1021d000cdc2a800c4e2a800c542a8003c00370058
:1021e0009141800000fa2000808f500007003600e7
:1021f000c402a800c422a800cde2a800cdc2a80055
:10220000c4e2a800c542a900310037009141800016
:1022100080bb2000808f500007003600c402a80059
:10222000c422a800cde2a800cdc2a800c4e2a90043
:10223000c542a9002600370091418000007d2000a2
:10224000808f500007003600c402a800c422a800f6
:10225000cde2a800cdc2a900c4e2a900c542a900f0
:102260001b00370091418000803e2000808f50008d
:1022700007003600c402a800c422a800cde2a900cd
:10228000cdc2a900c4e2a900c542a90010003700d0
:1022900090418000e00f500007003200c402a80007
:1022a000c422a900cde2a900cdc2a900c4e2a900c0
:1022b000c542a90006003700c402a900c422a90033
:1022c000cde2a900cdc2a900c4e2a900c542a9007f
:1022d0000080fa0000000600809fbe000000fa00a7
:1022e000911680000002200000806000e00f500086
:1022f0000600320028c8bf0030e8b70010c0b300a5
:1023000039e8b7001fe1a9000a0037005116800024
:102310000008200000806000e00f5000050032003f
:1023200029c8bf0030e8b70010c0b30039e8b700d3
:102330001fe1a9009660a8008660a9000080fa004d
:102340004f00be00004006000000fa0052f90700ee
:1023500093f807009603070056030700650307007c
:102360009860a8000c04a8000c24a800d0a2a80023
:10237000c8e2a800d4a2a9000080eb006019880080
:102380007007a800110a800080ff2f000080600005
:10239000100a880042e1a800110a8000f0f92f001d
:1023a000808060000002200000807000100a880019
:1023b000110a800080ff2f00008060000010a00044
:1023c000100a880021058000f0f82f0000806000ce
:1023d0000040a000200588008420a9009420a800c7
:1023e000310a800080ff2f0000806000300a8800e2
:1023f00046e1a800310a8000f0f92f0080806000db
:102400000002200000807000300a8800310a80003d
:1024100080ff2f00008060003000b300300a880089
:1024200031058000f0f82f00008060000040a0001f
:102430003005880084a0a90094a0a800113a80006b
:10244000f0fb2f0000816000600420007105200077
:1024500023742000804978008149780082497800ff
:102460007134800000fe2f00008060006000b30027
:102470007034880071348000f00f2e00808060007e
:10248000006020000080700070348800113a8000e5
:10249000000420000081700060042000710520000d
:1024a00023742000804978008149780082497800af
:1024b000c922a9000080eb00600888000000eb0042
:1024c000d04188000000eb00e041880000012800b6
:1024d00080088800920120000300200010002000e6
:1024e000010020004efd07003064a8000100370005
:1024f00000000000e1418000d041800000805000d9
:10250000f0418800f1418000c05d2000808f5000c4
:1025100006003600f141800070892000808f500055
:1025200002003e0010c0b30024e8b70010c0b300a2
:1025300038e8b70024c8bf00e04f5000ecff32007d
:102540000000eb00704188000040eb0024e8b70079
:102550009660a800cafc07000000000030c8bf0059
:10256000e04f500005003a00f1088000000028000c
:1025700000806000e00f5000f8ff3a0000d0220019
:1025800011132000590307000183200091407800b7
:1025900028c8bf0080cf500007003a0028c8bf00fd
:1025a000fef8070028c8bf007cfc070028c8bf0051
:1025b000d3fe0700210037000183200091407800fe
:1025c00029c8bf0080cf500007003a0029c8bf00cb
:1025d000f2f8070029c8bf0070fc070029c8bf0037
:1025e000c7fe070015003700edfe07009041800090
:1025f000e00f50000a003a002bc8bf00e7f80700c0
:102600002bc8bf0065fc0700f20f2100030020006b
:10261000d0ea2d000100200001fd0700ffff370078
:102620002ac8bf00ddf807000068290081092000e2
:102630002e0307002ac8bf0058fc07000040eb002b
:1026400030e8b7000040eb0024e8b7000040eb00a2
:1026500039e8b7000000eb00704188000000eb0093
:10266000d04188000000eb00e0418800a1ff370066
:10267000809fbe000000fa004460a8008420a900ea
:10268000000a8000d041880002003700000a800064
:1026900080408800100a800070006000e00f500049
:1026a000faff3a00110a800080ff2f0000806000ce
:1026b000100a880042e1a800110a8000f0f92f00fa
:1026c000808060000002200000807000100a8800f6
:1026d000110a800080ff2f00008060000010a00021
:1026e000100a880021058000f0f82f0000806000ab
:1026f0000040a000200588008420a9009420a800a4
:102700004460a9000080fa004f00be0000400600af
:10271000801f78000000fa004460a80084a0a9008f
:10272000200a8000e04188000000eb0030088800ab
:1027300002003700200a800080408800300a8000b4
:1027400070006000e00f5000faff3a004460a900fa
:102750000080fa004f007800004006002000fa00d8
:10276000200f9800320f9800430f9800510f9800e7
:10277000640f9800750f98006000b800008fbe00cd
:102780006000b80020079800310798006000b8008a
:1027900040079800510798000004a8002e089000f8
:1027a000000040000000400080007800004420004d
:1027b00000804000600798002e0890004280de00f4
:1027c00000004000800078000042200000804000af
:1027d000700798002e0890004380de000000400043
:1027e000800078008041200000804000000f9800a9
:1027f00040412000100f98005e089000e10f50004b
:1028000049003a003e099000ce099000f0ff2f00e9
:1028100001002000020278000301780080017800a6
:102820000100780003026200000061000100200046
:10283000c000dd00000020000001be006120b800e3
:102840000001710081817100220798003307980010
:102850003e089000ce0890004088de00cf80de0069
:102860000001be00300020000100200002027800bc
:102870000301780080017800010078000302620003
:102880000000610001002000c000dd000000200009
:102890000001be006120b80000017100818171005b
:1028a00042079800530798003e089000ce08900019
:1028b0004288de00cf80de000001be00f07f2000f5
:1028c00001002000020278008301780000017800f6
:1028d0000100780002016200008061000100200018
:1028e000c000dd0000002000008fbe006110b800b5
:1028f0001e1f70001e9770001e007800c500dd00ce
:102900004e00900000804000e80040006e00900003
:10291000010878006e0090000080e800ae00900092
:1029200001087800190037003e099000ce09900098
:10293000f07f20000100200002027800830178006f
:10294000000178000100780002016200008061004f
:1029500001002000c000dd0000002000008fbe004c
:102960006110b8001e1f70001e9770001e007800d6
:10297000c500dd006e009000010878006e00900038
:102980000080e8008000eb00010878007e009000e5
:10299000900078002e089000630060004200dd0087
:1029a000f20020000010dd000080ea00808060005e
:1029b0007e009000010878002e08900063006000ff
:1029c0004200dd00ee0890008008dd007e009000ef
:1029d00010007800808070007e0090000108780070
:1029e0000e089000900078002e08900067006000ac
:1029f00000004000320020000010dd000080ea00ee
:102a0000808060000e089000010878002e08900079
:102a10006700600000004000fe0890008008dd00b4
:102a20000e08900010007800808070000e08900062
:102a300001087800110020002e0890000008dd0039
:102a4000800078001e0890001000780080807000e0
:102a50001e089000010878000004a9000080fa0018
:102a6000000006001800fa0070079800020f980096
:102a7000130f9800210f9800340f98006000b800e1
:102a8000008fbe006000b800200798003107980052
:102a90006000b80040079800510798000004a800a3
:102aa0007e009000000040000000400080007800a0
:102ab0000043200000804000600798003e0890001e
:102ac000e10f500053003a000e0990009e0990005b
:102ad000f0ff2f00010020000202780003017800bf
:102ae00080017800010078000302620000006100ac
:102af00001002000c000dd00000020000001be0039
:102b00006120b800000171008181710022079800e6
:102b1000330798000e0890009e0890004088de0061
:102b2000cf80de000001be00300020000100200048
:102b3000020278000301780080017800010078002b
:102b4000030262000000610001002000c000dd00ff
:102b5000000020000001be006120b80000017100eb
:102b60008181710042079800530798000e08900079
:102b70009e0890004288de00cf80de000001be008b
:102b8000f07f20000100200002027800830178001d
:102b900000017800010078000201620000806100fd
:102ba00001002000c000dd0000002000008fbe00fa
:102bb0006110b8001e1f70001e9770002e08900054
:102bc000e10f500008003a001e007800c500dd004b
:102bd0004e00900000804000e80040006e00900031
:102be00001087800060037001e007800c500dd00ef
:102bf0004e009000808040006e0090000108780038
:102c00006e0090000080e800ae009000010878009f
:102c1000220037000e0990009e099000f07f2000ee
:102c20000100200002027800830178000001780092
:102c300001007800020162000080610001002000b4
:102c4000c000dd0000002000008fbe006110b80051
:102c50001e1f70001e9770002e089000e10f50009c
:102c600006003a001e0078004500dd00e800400044
:102c70006e00900001087800040037001e00780004
:102c8000c500dd006e009000010878006e00900025
:102c90000080e8008000eb00010878000004a90033
:102ca0000080fa00000006002200fa00400f9800a1
:102cb000520f9800630f9800710f98000417980046
:102cc0006000b800008fbe006000b80020079800c8
:102cd000310798006000b80040079800510798003d
:102ce0006000b80060079800710798006000b800a5
:102cf000000f9800110f98006000b800200f980096
:102d0000310f98007e089000e00f5000460032001e
:102d10005e099000ee099000f00320000100200001
:102d20000202780003017800800178000100780039
:102d3000030262000000610001002000c000dd000d
:102d4000000020000001be006120b80000017100f9
:102d500081817100020f9800130f98005e089000a7
:102d6000ee0890004a09dd004600de000000710018
:102d7000c688de000001be00f0ff20000100200038
:102d800002027800030178008001780001007800d9
:102d9000030262000000610001002000c000dd00ad
:102da000000020000001be006120b8000001710099
:102db00081817100220f9800330f98005e08900007
:102dc000ee0890004288de00cf80de000001be00e9
:102dd000f07f20000100200002027800030178004b
:102de00080017800010078000302620000006100a9
:102df00001002000c000dd00000020000001be0036
:102e00006120b800000171008181710062079800a3
:102e1000730798002e089000be08900020079800c5
:102e200031079800130037005e099000ee0990000a
:102e3000f07f2000010020000202780003017800ea
:102e40008001780001007800030262000000610048
:102e500001002000c000dd00000020000001be00d5
:102e60006120b80000017100818171006207980043
:102e7000730798000e109000e10f50001a003a00fe
:102e80006e009000fe0090004209dd00ce01de00e1
:102e9000830171004201dd007e08900001002000e6
:102ea00000007100818071000001be000210a000ce
:102eb000028fbe000e0890009e0890004a09dd00b7
:102ec000c601de00830171004a01dd000020200000
:102ed000010020000000710081807100400798000f
:102ee00051079800120037006e009000fe0090001d
:102ef0004209dd00ce01de00830171004201dd00e8
:102f00007e08900001002000001f710001977100f1
:102f10000e0990009e0990004a18dd00c610de00e0
:102f2000810070004a10dd004007980051079800aa
:102f30007e089000e00f5000090032001e0078006b
:102f4000800078000110a0004e0890004401dd00d0
:102f500000782200000041000108780006003700d8
:102f60009e0078004e0890004401dd0000782200a9
:102f70000000410001087800ae0090004e0890006b
:102f80004401dd00207822000000410001087800a3
:102f9000ce0090004e0890004401dd0040782200f1
:102fa00000004100010878000080fa0000000600df
:102fb0000c00fa00000f7800110798002207980013
:102fc0003307980044079800550798001e007800c2
:102fd0004400dd00e4004000007822000080400052
:102fe0009000780000ff2f00808060001e0090009d
:102ff000808040001e0078004401dd0040782200ff
:1030000000004100010878001e007800c400dd00c7
:103010006078220000804000ae0090000108780037
:103020001e007800c400dd0080782200008040008f
:10303000be009000010878001e007800c400dd008a
:10304000a078220000804000ce00900001087800a7
:103050001e007800c400dd00c0782200008040001f
:10306000de009000010878000080fa0000000600f1
:103070000400fa00100798000004a8004041200056
:10308000000f78001e0078009000780012002000e9
:103090001e0090000010dd000080ea0080806000cb
:1030a0001e007800010878000004a9000080fa00e2
:1030b000000006000000fa000000eb00001f88007e
:1030c00000022200001c880020442000401c8800d0
:1030d00070002000501c880060042000101c880034
:1030e00000782000201c880081e3a8000080fa00fe
:1030f000000006000000fa000000eb00001f88003e
:1031000000022000c01c880000442000001d880030
:1031100070002000101d880020022000d01c8800b4
:1031200000782000e01c880099e3a8000080fa00e5
:10313000000006000000fa000164a8008120800061
:10314000f0f32f0000806000802088008120800044
:1031500000fc2f0080806000700220000080700062
:10316000802088009120800070fc2f00008060008b
:103170009020880012e4a80091208000f08f2f009a
:103180008080600000102000008070009020880087
:103190009120800080ff2f00008060003000b3008d
:1031a0009020880012c4a8000080fa0000000600e9
:1031b0000000fa0001208000f08f2f008080600066
:1031c0000040200000807000002088000000000007
:1031d00001208000000e2000808060000008200098
:1031e000808f5000faff3a00d2ff070031208000a4
:1031f000f0ff210000806000302088008002eb009a
:10320000140020008000eb006011b80010002000c6
:1032100052fd07000002eb008000eb006011b800d7
:103220000000eb000ffe070001208000f08f2f0050
:103230000080600000208800000000000120800065
:10324000000e200000806000e00f5000fbff3a00fd
:103250000000eb00502188005021800040218800b0
:10326000402180001021880010218000002188006a
:1032700030e4a80031e4a900802180003000b300d0
:1032800080218800812180000030200000807000b3
:0c329000802188000080fa000000060089
:020000040000fa
:10329c00240800001c0000000200000000000100d7
:1032ac00020304000506070008000000000070007f
:1032bc0017640000e803000000000000000000009c
:1032cc0000000000000800002400000000000000c6
:1032dc0080270000400000000000000000000000fb
:020000040000fa
:1032ec00f03fb1000180b10006003500ee0309008b
:1032fc0000000000403fb1000180b100fbff3d0029
:10330c001000b000203fb000020035000080090022
:08331c000000000000000600a3
:020000040000fa
:0200000401f009
:04000000cf0000002d
:020000040000fa
:0200000401f009
:04000400cf00000029
:020000040000fa
:0200000401f009
:0400080007000000ed
:020000040000fa
:0200000401f009
:04000c0001000000ef
:020000040000fa
:0200000401f009
:040010008300000069
:020000040000fa
:0200000401f009
:040014005f00000089
:020000040000fa
:0200000401f009
:04001800f7000000ed
:020000040000fa
:0200000401f009
:04001c00dfff000002
:00000001FF
