:020000040000fa
:080000000002040000000000f2
:020000040000fa
:10000800cc02000090020000960200009c02000052
:10001800a2020000a8020000cc020000cc020000ee
:10002800cc02000060150000cc020000cc020000e9
:1000380006190000b0150000cc020000cc02000038
:10004800cc020000cc020000b6070000cc02000081
:10005800cc020000cc0200000e190000cc02000007
:10006800cc020000cc020000cc020000721a000092
:10007800cc020000cc020000cc020000cc02000040
:1000880016190000cc020000cc020000c4140000c5
:10009800cc020000cc020000cc020000cc02000020
:1000a800cc020000cc020000cc020000c418000002
:1000b8001e190000cc020000cc020000cc02000097
:1000c800cc020000cc020000cc020000cc020000f0
:1000d800cc020000cc020000cc020000cc020000e0
:1000e800cc020000cc020000cc020000cc020000d0
:1000f800cc020000cc020000cc020000cc020000c0
:10010800cc020000cc020000cc020000cc020000af
:10011800cc020000cc020000cc020000cc0200009f
:10012800cc020000cc020000cc020000cc0200008f
:10013800cc020000cc020000cc020000cc0200007f
:10014800cc020000cc020000cc020000cc0200006f
:10015800cc020000cc020000cc020000cc0200005f
:10016800cc020000cc020000cc020000cc0200004f
:10017800cc020000cc020000cc020000cc0200003f
:10018800cc020000cc020000cc020000cc0200002f
:10019800cc020000cc020000cc020000cc0200001f
:1001a800cc020000cc020000cc020000cc0200000f
:1001b800cc020000cc020000cc020000cc020000ff
:1001c800cc020000cc020000cc020000cc020000ef
:1001d800cc020000cc020000cc020000cc020000df
:1001e800cc020000cc020000cc020000cc020000cf
:0801f800cc020000cc02000063
:020000040000fa
:10020800cc020000ae020000b4020000ba020000f6
:10021800c0020000c6020000cc020000cc020000b0
:10022800cc02000060150000cc020000cc020000e7
:1002380006190000b0150000cc020000cc02000036
:10024800cc020000cc020000b6070000cc0200007f
:10025800cc020000cc0200000e190000cc02000005
:10026800cc020000cc020000cc020000721a000090
:10027800cc020000cc020000cc020000cc0200003e
:1002880016190000cc020000cc020000c4140000c3
:10029800cc020000cc020000cc020000cc0200001e
:1002a800cc020000cc020000cc020000c418000000
:1002b8001e190000cc020000cc020000cc02000095
:1002c800cc020000cc020000cc020000cc020000ee
:1002d800cc020000cc020000cc020000cc020000de
:1002e800cc020000cc020000cc020000cc020000ce
:1002f800cc020000cc020000cc020000cc020000be
:10030800cc020000cc020000cc020000cc020000ad
:10031800cc020000cc020000cc020000cc0200009d
:10032800cc020000cc020000cc020000cc0200008d
:10033800cc020000cc020000cc020000cc0200007d
:10034800cc020000cc020000cc020000cc0200006d
:10035800cc020000cc020000cc020000cc0200005d
:10036800cc020000cc020000cc020000cc0200004d
:10037800cc020000cc020000cc020000cc0200003d
:10038800cc020000cc020000cc020000cc0200002d
:10039800cc020000cc020000cc020000cc0200001d
:1003a800cc020000cc020000cc020000cc0200000d
:1003b800cc020000cc020000cc020000cc020000fd
:1003c800cc020000cc020000cc020000cc020000ed
:1003d800cc020000cc020000cc020000cc020000dd
:1003e800cc020000cc020000cc020000cc020000cd
:0803f800cc020000cc02000061
:020000040000fa
:10040000af8420000e7722000e018800000000005b
:100410000c000700801c22000100200011000700d2
:10042000000020000000e000020032000000020096
:1004300000000000aa1a0200000000000040da00dc
:100440000000fe004440a900000020000000e00081
:100450000300320000002000a00188004440a800f2
:100460000000060091018800800078000000eb0089
:1004700015003700e280400032a0b4009101ba00bc
:10048000e280400032a0b4009102ba00e280400055
:1004900032a0b4000002eb00472bde00f507b200eb
:1004a000602ce10004003a000059eb008301e900f0
:1004b000fdff3e00040037006128e100010032002a
:1004c0000082eb00040007001101ba000200e00006
:1004d000e8ff3a00000006003159ba008301e90044
:1004e0000c0032002159ba008301e90008003200f3
:1004f0000400e00003003a00e280400032a0b400b3
:10050000f5ff370011d9ba008301e900faff3a007c
:100510008100e800e180400032a0b4000000060045
:100520000000fa008020a900ffff37000000fa0059
:100530008060a900ffff37000000fa008040a9009a
:10054000ffff37000000fa008080a900ffff37009e
:100550000000fa0080a0a900ffff37000000fa00a9
:100560008020a900ffff37000000fa008060a9008a
:10057000ffff37000000fa008040a900ffff3700ae
:100580000000fa008080a900ffff37000000fa0099
:1005900080a0a900ffff37000040da000000fe0045
:1005a000889fbe008a9fbe003004be002005be00aa
:1005b0000404440085844c0006054d0087854d00e9
:1005c0000898be000a90be000440e10005c8e100a2
:1005d00006d0e10007d8e1000200310068004000c9
:1005e0001008e8004f05be004f04be0000000600e2
:1005f000889fbe008a9fbe008c1f7800000678008e
:100600003c04be002c05be000400540085805c0044
:1006100006015d0087815d00009ebe00029ebe0057
:10062000100020000440e10005c8e10006d0e10010
:1006300007d8e100010039000000eb001c0e10009b
:100640004f0678004f05be004f04be0000000600b4
:100650001200fa00889fbe008a9fbe008c9fbe00d9
:100660000205be000004be00e4b79f00f5b79f007e
:1006700086bf9f0097bf9f000000eb00d0b79f0090
:10068000c0b79f00b0b79f00a0b79f0090b79f0072
:1006900000067800fd032000dfb197004fb09700ff
:1006a00003814100bfb09700e08f510004003d007e
:1006b000290007007e805700b9ff070003003700bc
:1006c000250007007e805700c9ff0700dfb09700b4
:1006d000e08f5000070035001400200005002000c6
:1006e0006033b80008047200898472000a05730040
:1006f0008b8573000c06e8008d0f5600e6ff340072
:10070000e08f500006003d006fb29700ffb29700e7
:100710000fbb97009fbb97007e805700a0ff07008c
:100720005fa89700e00f500004003a001fb4970044
:10073000afb497003fb59700cfb597000800be0053
:100740000a01be004f06be004f05be004f04be00aa
:100750000080fa0000000600cf01de000281710077
:10076000b2b79f004f09de0000004000000071009a
:10077000a0b79f000fb097004f01de0081804000be
:100780008100710091b79f007faa9700cf20de0003
:10079000000040000080700080b79f000800be008d
:1007a0000a01be004f18de0004024200000272007f
:1007b000f4af9f000804440089844c000a054d00f2
:1007c0008b854d004fb29700dfb297006fb3970053
:1007d000ffb3970000000600881f78001800200073
:1007e000881f78009aff07008f87e9004f04780080
:1007f00000000600801feb0095ff07008f87e900cf
:1008000000000600889fbe008a9fbe008c1f7800f3
:10081000e00f5000e08f5800e00f5900e08f5900c2
:100820000f003d006044b8006055b800000054005f
:1008300081805c0002015d0083815d001c0020005e
:100840000820e10009a8e1000ab0e1000bb8e100ce
:100850000d003d00190007000006eb000a003700fc
:100860000006eb00e00f5200e08f5a00e00f5b0043
:10087000e08f5b0004003d006044b8006055b800a4
:100880000e0007001c002000d3ff0700e00f5600f9
:10089000060032006022b8006033b8000000520049
:1008a00081805a0002015b0083815b004f06780063
:1008b0004f05be004f04be000000060004025400b5
:1008c00085825c0006035d0087835d0000000600f2
:1008d000889fbe008a9fbe008c1f7800e00f5000ea
:1008e000e08f5800e00f5900e08f59000d003d00e7
:1008f0006044b8006055b8000000540081805c007e
:1009000002015d0083815d001c0020000820e100e1
:1009100009a8e1000ab0e1000bb8e1000d003d00bc
:10092000080037000006eb00e00f5200e08f5a008d
:10093000e00f5b00e08f5b0006003d006044b80004
:100940006055b8000402540085825c0006035d0017
:1009500087835d00a7ff0700e00f56000600320006
:100960006022b8006033b8000000520081805a0055
:1009700002015b0083815b004f0678004f05be00db
:100980004f04be0000000600889fbe008a9fbe0084
:100990008c1f78000006eb00e00f5000e08f58003d
:1009a000e00f5900e08f590007003d006044b80097
:1009b0006055b8000000540081805c0002015d00b9
:1009c00083815d001c002000e00f5200e08f5a0080
:1009d000e00f5b00e08f5b0007003d006044b80063
:1009e0006055b8000402540085825c0006035d0077
:1009f00087835d000c00a2000c000700e00f56008a
:100a0000060032006022b8006033b80000005200d7
:100a100081805a0002015b0083815b004f067800f1
:100a20004f05be004f04be0000000600889fbe00b8
:100a30008a9fbe008c9fbe000404b8000506b80063
:100a40008904460060854e000606b8000a05460087
:100a5000e0854e000706b8008b054600040eb8007e
:100a6000890446000a854e00e0854d00050eb80059
:100a70000a0546008b854e00060eb8008b05460021
:100a80000416b8000a0546008b854e000516b8000e
:100a90008b054600041eb8008b0546000800be000a
:100aa0000a01be004f06be004f05be004f04be0047
:040ab000000006003c
:020000040000fa
:100ab4000000fa004460a90040a7a9000080eb00f0
:100ac400601988007007a800c122a900d062a9009b
:100ad400d082a900c522a800d462a800d482a800ac
:100ae400c882a900c102a900c062a900c042a9002d
:100af400d042a900d022a900d002a900c862a9004e
:100b0400cc82a800c502a800c462a800c442a80000
:100b1400d442a800d422a800d402a800cc62a80021
:100b2400c022a900c002a900c9e2a900c9c2a90043
:100b3400c0e2a900c142a900c422a800c402a800be
:100b4400cde2a800cdc2a800c4e2a800c542a80016
:100b5400c9a2a9008540a9009540a90010128000ef
:100b64003000b300101288001112800030fe2f00f4
:100b7400008060000040a000101288004382a90099
:100b84004362a9004342a8004322a9004302a900ea
:100b940042c2a90042a2a80041e2a8008540a900df
:100ba4009540a800113a8000f0fb2f0000816000fe
:100bb400600420007105200023742000804978001f
:100bc40081497800824978006136800000fe2f0058
:100bd400008060000030a00060368800513680003c
:100be400f00f2e00808060000070200000807000f4
:100bf40050368800113a8000000420000081700003
:100c040060042000710520002374200080497800ce
:100c14008149780082497800d122a800d102a90034
:100c2400113a8000f0fb2f00008160006004200076
:100c340071052000237420008049780081497800e0
:100c440082497800a135800000fe2f0000806000fa
:100c54009001b300a0358800c136800000fe2f004b
:100c6400008060000040a000c0368800113a800077
:100c74000004200000817000600420007105200041
:100c840023742000804978008149780082497800e3
:100c9400d522a900d502a9009860a8000c04a800d8
:100ca4000c24a800110a800080ff2f00008060003f
:100cb400100a880042e1a800110a8000f0f92f0010
:100cc400808060000002200000807000100a88000c
:100cd400110a800080ff2f00008060000010a00037
:100ce400100a880021058000f0f82f0000806000c1
:100cf4000040a000200588008420a9009420a800ba
:100d0400310a800080ff2f0000806000300a8800d4
:100d140046e1a800310a8000f0f92f0080806000cd
:100d24000002200000807000300a8800310a800030
:100d340080ff2f00008060003000b300300a88007c
:100d440031058000f0f82f00008060000040a00012
:100d54003005880084a0a90094a0a800113a80005e
:100d6400f0fb2f000081600060042000710520006a
:100d740023742000804978008149780082497800f2
:100d84007134800000fe2f00008060006000b3001a
:100d94007034880071348000f00f2e008080600071
:100da400006020000080700070348800113a8000d8
:100db4000004200000817000600420007105200000
:100dc40023742000804978008149780082497800a2
:100dd400c922a9000080eb00600888000000eb0035
:100de400d04088000000eb00e040880000012800ab
:100df40080088800c902a900d0a2a800c8e2a800ff
:100e0400d4a2a900cce2a90062e0a8006340a80033
:100e140061058000f0ff280080806000000025004c
:100e240000807000600588009660a9008660a900b3
:100e34001fe1a9001e21a9001ec1a900f10880001c
:100e4400f0fc2f0000806000f0088800810580001d
:100e5400f0ff280080806000000023000080700004
:100e6400800588008760a9009760a8000080fa00c8
:100e7400000006000600fa00b0022000000f78000f
:100e84002000200010079800200020002007980070
:100e94001e80e900303a88001e009000004078006f
:100ea40000c0e900634060000080fb006300600054
:100eb4004600dd00223a8000f1f32f00810061003a
:100ec40000807000203a88002e00900000407800d6
:100ed40000c0e9007f4060000080fb007f006000ec
:100ee400223a800001fe2f00810061000080700022
:100ef400203a88001200200080072000a109200069
:100f04003374200080497800814978008249780050
:100f140012002000600420007105200023742000ca
:100f240080497800814978008249780000000000f7
:100f3400113a80000000270080806000000021003a
:100f4400808f5000faff3a0000000000113a800040
:100f54000002200000806000e00f5000fbff320020
:100f64000080fa00000006000000fa008540a90095
:100f74000080fa00004006000400fa0020479800b0
:100f84000000eb00000f78000005200001002000a5
:100f9400150d0700200020004012880000052000e5
:100fa40001002000100d0700f0ff2300401288000c
:100fb40000052000010020000b0d0700f0f12f00b8
:100fc400401288000005200001002000060d0700e3
:100fd4000080eb0040128800000520000100200082
:100fe400010d0700cda2a800800720000100200009
:100ff400fd0c0700cda2a90000052000010020007f
:10100400f90c07002e4090000000fb006101b900bc
:101014000080eb008080eb000200400083804800e9
:101024009200200003002000820f5000838f58009c
:1010340002063e000060010009003700f30037009b
:1010440087013700fc013700270337002a033700e4
:10105400f70537005003370069033700d905370017
:10106400cda2a9000005200001002000de0c07002d
:10107400100020004012880000052000010020001c
:10108400d90c0700b06d2b004012880000882300a3
:1010940011002000d40c070000c026004012880074
:1010a4000005200001002000cf0c0700f01f2000e5
:1010b400401288000088230011002000ca0c070099
:1010c400cda2a800204180000100200002002000e1
:1010d4000300200004a02500252620006033b8006a
:1010e40028fe0700843e2000050020006033b8007d
:1010f400b8fd07000000be00bb0c0700cda2a9008c
:101104000005200001002000b70c0700100020009b
:10111400401288000005200001002000b20c0700e6
:10112400b06d2b00401288000088230011002000bd
:10113400ad0c070010c026004012880000052000f6
:1011440001002000a80c070000f02f0040128800c6
:101154000088230011002000a30c0700cda2a800e2
:101164002041800001002000020020000300200034
:1011740004a02500252620006033b80001fe0700e6
:10118400843e2000050020006033b80091fd070074
:101194000000be00940c0700cda2a90000052000a9
:1011a40001002000900c070010002000401288006d
:1011b40000052000010020008b0c0700b06d2b00ff
:1011c400401288000088230011002000860c0700cc
:1011d400f0df2600401288000005200001002000f6
:1011e400810c07000000eb004012880000882300f7
:1011f400110020007c0c0700cda2a8002041800033
:1012040001002000020020000300200004a02500ab
:10121400252620006033b800dafd0700843e200054
:10122400050020006033b8006afd07000000be001e
:101234006d0c0700cda2a9000005200001002000cc
:10124400690c0700100020004012880000052000ef
:1012540001002000640c0700b06d2b0040128800d0
:1012640000882300110020005f0c070000c0260046
:101274004012880000052000010020005a0c0700dd
:10128400f01f200040128800008823001100200075
:10129400550c0700cda2a8002041800001002000c9
:1012a400020020000300200004402b00454c2000d5
:1012b4006033b800b3fd0700843e20000500200021
:1012c4006033b80043fd07000000be00460c070071
:1012d400cda2a9000005200001002000420c070057
:1012e40010002000401288000005200001002000aa
:1012f4003d0c0700b06d2b004012880000882300cd
:1013040011002000380c070010c02600401288008d
:101314000005200001002000330c070000f02f001e
:101324004012880000882300110020002e0c0700c2
:10133400cda2a8002041800001002000020020006e
:101344000300200004402b00454c20006033b8000b
:101354008cfd0700843e2000050020006033b800a7
:101364001cfd07000000be001f0c0700cda2a90051
:1013740000052000010020001b0c070010002000c5
:10138400401288000005200001002000160c070010
:10139400b06d2b004012880000882300110020004b
:1013a400110c0700f0df2600401288000005200021
:1013b400010020000c0c07000000eb004012880024
:1013c4000088230011002000070c0700cda2a8000c
:1013d40020418000010020000200200003002000c2
:1013e40004402b00454c20006033b80065fd070025
:1013f400843e2000050020006033b800f5fc07009f
:101404000000be00f80b07000c05370014c8bf002d
:101414000000fb006101b9000080eb008080eb005c
:1014240002004000838048004200200003002000a6
:10143400820f5000838f5800ff043e0000600100bb
:10144400040037001d003700360037004f00370016
:1014540068003700cda2a90000052000010020008b
:10146400e10b070010002000401288000005200056
:1014740001002000dc0b0700b06d2b004012880037
:101484000088230011002000d70b0700f0df26009e
:10149400401288000005200001002000d20b070044
:1014a4000000eb0040128800008823001100200097
:1014b400cd0b0700cda2a80068003700cda2a9007b
:1014c4000005200001002000c70b070010002000c9
:1014d400401288000005200001002000c20b070014
:1014e400b06d2b00401288000088230011002000fa
:1014f400bd0b070010c02600401288000005200024
:1015040001002000b80b070000f02f0040128800f3
:101514000088230011002000b30b0700cda2a8000f
:101524004e003700cda2a9000005200001002000d4
:10153400ad0b0700100020004012880000052000b9
:1015440001002000a80b0700b06d2b00401288009a
:101554000088230011002000a30b070000c0260010
:101564004012880000052000010020009e0b0700a7
:10157400f01f200040128800008823001100200082
:10158400990b0700cda2a80034003700cda2a90012
:101594000005200001002000930b0700100020002c
:1015a4004012880000052000010020008e0b070077
:1015b400b06d2b0040128800008823001100200029
:1015c400890b070010c02600401288000005200087
:1015d40001002000840b070000f02f004012880057
:1015e40000882300110020007f0b0700cda2a80073
:1015f4001a003700cda2a900000520000100200038
:10160400790b07001000200040128800000520001c
:1016140001002000740b0700b06d2b0040128800fd
:1016240000882300110020006f0b0700f0df260064
:101634004012880000052000010020006a0b07000a
:101644000000eb00401288000088230011002000f5
:10165400650b0700cda2a800000000007704370046
:10166400cda2a90000052000010020005e0b0700a8
:101674000000eb004012880000052000010020005b
:10168400590b0700d0b62d004012880000882300b3
:1016940011002000540b0700f06f2800401288004e
:1016a40000052000010020004f0b07000000eb00a4
:1016b4004012880000882300110020004a0b070014
:1016c400cda2a800204180000100200002002000db
:1016d4000300200004402800757d21006033b80019
:1016e400a8fc0700843e2000050020006033b800f9
:1016f40038fc07000000be003b0b0700cda2a90088
:101704000005200001002000370b07000000eb005b
:10171400401288000005200001002000320b070061
:10172400d0b62d004012880000882300110020004c
:101734002d0b0700106028004012880000052000cf
:1017440001002000280b070000f02f004012880041
:101754000088230011002000230b0700cda2a8005d
:10176400204180000100200002002000030020002e
:1017740004402800757d21006033b80081fc070017
:10178400843e2000050020006033b80011fc0700ef
:101794000000be00140b0700cda2a9000005200024
:1017a40001002000100b07000000eb00401288002d
:1017b40000052000010020000b0b0700d0b62d000f
:1017c400401288000088230011002000060b070047
:1017d400006028004012880000052000010020005d
:1017e400010b0700f01f200040128800008823002e
:1017f40011002000fc0a0700cda2a80020418000af
:101804000100200002002000030020000440280002
:10181400757d21006033b8005afc0700843e200027
:10182400050020006033b800eafb07000000be009a
:10183400ed0a070001043700cda2a900000520002d
:1018440001002000e80a0700300020004012880050
:101854000005200001002000e30a070060db2600e9
:10186400401288000088230011002000de0a0700cf
:10187400f09f2d0040128800000520000100200088
:10188400d90a07000000eb004012880000882300fa
:1018940011002000d40a0700cda2a8002041800036
:1018a4000100200002002000030020000440280062
:1018b400757d21006033b80032fc0700843e2000af
:1018c400050020006033b800c2fb07000000be0022
:1018d400c50a0700cda2a9000005200001002000d0
:1018e400c10a0700300020004012880000052000d3
:1018f40001002000bc0a070060db260040128800bb
:101904000088230011002000b70a070010802d0072
:10191400401288000005200001002000b20a0700e0
:1019240000f02f00401288000088230011002000de
:10193400ad0a0700cda2a8002041800001002000cc
:10194400020020000300200004402800757d2100cf
:101954006033b8000bfc0700843e20000500200023
:101964006033b8009bfb07000000be009e0a07001e
:10197400cda2a90000052000010020009a0a07005a
:1019840030002000401288000005200001002000e3
:10199400950a070060db26004012880000882300b7
:1019a40011002000900a070000802d0040128800da
:1019b40000052000010020008b0a0700f01f200012
:1019c400401288000088230011002000860a0700c6
:1019d400cda2a800204180000100200002002000c8
:1019e4000300200004402800757d21006033b80006
:1019f400e4fb0700843e2000050020006033b800ab
:101a040074fb07000000be00770a07008b03370051
:101a1400cda2a9000005200001002000720a0700e1
:101a24003000200040128800000520000100200042
:101a34006d0a07000080eb00401288000088230034
:101a440011002000680a0700f0df2f004012880010
:101a54000005200001002000630a07000080eb005d
:101a64004012880000882300110020005e0a07004d
:101a7400cda2a80020418000010020000200200027
:101a84000300200004a02500252620006033b800b0
:101a9400bcfb0700843e2000050020006033b80032
:101aa4004cfb07000000be004f0a0700cda2a900ae
:101ab40000052000010020004b0a07000000eb0095
:101ac400401288000005200001002000460a07009b
:101ad4000000eb0040128800008823001100200061
:101ae400410a07000000eb004012880000052000b6
:101af400010020003c0a07000000eb0040128800af
:101b04000088230011002000370a0700cda2a80096
:101b1400204180000100200002002000030020007a
:101b240004a02500252620006033b80095fb07009b
:101b3400843e2000050020006033b80025fb070028
:101b44000000be00280a0700cda2a900000520005d
:101b540001002000240a0700100020004012880021
:101b640000052000010020001f0a0700b06d2b00b3
:101b74004012880000882300110020001a0a070080
:101b840000c026004012880000052000010020004b
:101b9400150a0700f01f2000401288000088230067
:101ba40011002000100a0700cda2a800cda2a900b0
:101bb40000052000010020000b0a0700300020006f
:101bc400401288000005200001002000060a0700da
:101bd40060db2600401288000088230011002000ea
:101be400010a070010802d00401288000005200023
:101bf40001002000fc09070000f02f0040128800bb
:101c04000088230011002000f7090700cda2a800d6
:101c14002041800001002000020020000300200079
:101c240004a02500252620006033b80055fb0700da
:101c3400843e2000050020006033b800e5fa070068
:101c44000000be00e8090700cda2a900000520009d
:101c540001002000e40907000000eb0040128800a6
:101c64000005200001002000df090700d0b62d0088
:101c7400401288000088230011002000da090700c0
:101c8400f06f2b00401288000005200001002000a6
:101c9400d50907000000eb004012880000882300eb
:101ca40011002000d0090700cda2a8002041800027
:101cb40001002000020020000300200004a02500f1
:101cc400252620006033b8002efb0700843e200048
:101cd400050020006033b800befa07000000be0013
:101ce400c10907001e0fe8001e007800e40f500031
:101cf40047ff3600d1023700cda2a900000520001d
:101d040001002000b80907000000eb004012880021
:101d14000005200001002000b30907000000eb00cb
:101d2400401288000088230011002000ae0907003b
:101d34000000eb0040128800000520000100200094
:101d4400a90907000000eb00401288000088230066
:101d540011002000a4090700cda2a80020418000a2
:101d640001002000020020000300200004a0250040
:101d7400252620006033b80002fb0700843e2000c3
:101d8400050020006033b80092fa07000000be008e
:101d940095090700a9023700cda2a900000520007b
:101da4000100200090090700100020004012880064
:101db40000052000010020008b090700b06d2b00f6
:101dc40040128800008823001100200086090700c3
:101dd40000c02600401288000005200001002000f9
:101de400810907000000eb004012880000882300ee
:101df400110020007c090700cda2a8008f02370043
:101e0400cda2a900000520000100200076090700ea
:101e14000000eb00401288000005200001002000b3
:101e2400710907000000eb004012880000882300bd
:101e3400110020006c0907003000200040128800c7
:101e44000005200001002000670907003030200051
:101e54004012880000882300110020006209070056
:101e6400cda2a80020418000010020000200200033
:101e74000300200004a02500252620006033b800bc
:101e8400c0fa0700843e2000050020006033b8003b
:101e940050fa07000000be0053090700cda2a900b4
:101ea40000052000010020004f0907000000eb009e
:101eb4004012880000052000010020004a090700a4
:101ec4000000eb004012880000882300110020006d
:101ed400450907007000200040128800000520001a
:101ee40001002000400907007070200040128800a3
:101ef40000882300110020003b090700cda2a800a0
:101f04002041800001002000020020000300200086
:101f140004a02500252620006033b80099fa0700a4
:101f2400843e2000050020006033b80029fa070031
:101f34000000be002c090700cda2a9000005200066
:101f440001002000280907000000eb00401288006f
:101f54000005200001002000230907000000eb0019
:101f64004012880000882300110020001e09070089
:101f7400f00020004012880000052000010020002d
:101f840019090700f0f0200040128800008823009f
:101f94001100200014090700cda2a80020418000f0
:101fa40001002000020020000300200004a02500fe
:101fb400252620006033b80072fa0700843e200012
:101fc400050020006033b80002fa07000000be00dc
:101fd40005090700cda2a90000052000010020008a
:101fe400010907000000eb004012880000052000f2
:101ff40001002000fc0807000000eb0040128800ec
:102004000088230011002000f7080700f0012000d9
:10201400401288000005200001002000f20807009b
:10202400f0f12100401288000088230011002000f4
:10203400ed080700cda2a800204180000100200087
:10204400020020000300200004a025002526200013
:102054006033b8004bfa0700843e200005002000de
:102064006033b800dbf907000000be00de0807009b
:10207400cda2a9000005200001002000da08070015
:102084000000eb0040128800000520000100200041
:10209400d50807000000eb004012880000882300e8
:1020a40011002000d0080700f0032000401288002f
:1020b4000005200001002000cb080700f0f32300f6
:1020c400401288000088230011002000c608070081
:1020d400cda2a800204180000100200002002000c1
:1020e4000300200004a02500252620006033b8004a
:1020f40024fa0700843e2000050020006033b80065
:10210400b4f907000000be00b7080700cda2a9007b
:102114000005200001002000b30807000000eb00c8
:10212400401288000005200001002000ae080700ce
:102134000000eb00401288000088230011002000fa
:10214400a9080700f00720004012880000052000bd
:1021540001002000a4080700f0f7270040128800bf
:1021640000882300110020009f080700cda2a800ca
:102174002041800001002000020020000300200014
:1021840004a02500252620006033b800fdf90700cf
:10219400843e2000050020006033b8008df907005c
:1021a4000000be0090080700cda2a9000005200091
:1021b400010020008c0807000000eb00401288009a
:1021c4000005200001002000870807000000eb0044
:1021d40040128800008823001100200082080700b4
:1021e400f00f2000401288000005200001002000ac
:1021f4007d0807000080eb0040128800008823005f
:102204001100200078080700cda2a800204180001a
:1022140001002000020020000300200004a025008b
:10222400252620006033b800d6f90700843e20003c
:10223400050020006033b80066f907000000be0006
:1022440069080700cda2a9000005200001002000b4
:10225400650807000000eb0040128800000520001c
:1022640001002000600807000000eb004012880015
:1022740000882300110020005b080700f01f2000e5
:1022840040128800000520000100200056080700c5
:102294000080eb0040128800008823001100200019
:1022a40051080700cda2a8002041800001002000b1
:1022b400020020000300200004a0250025262000a1
:1022c4006033b800aff90700843e20000500200009
:1022d4006033b8003ff907000000be004208070061
:1022e400cda2a90000052000010020003e0807003f
:1022f4000000eb00401288000005200001002000cf
:10230400390807000000eb00401288000088230011
:102314001100200034080700f01f2000401288003c
:1023240000052000010020002f080700e0ff2f0017
:102334004012880000882300110020002a080700aa
:10234400cda2a8002041800001002000020020004e
:102354000300200004a02500252620006033b800d7
:1023640088f90700843e2000050020006033b8008f
:1023740018f907000000be001b080700cda2a90041
:102384000005200001002000170807000000eb00f2
:1023940040128800000520000100200012080700f8
:1023a4000000eb0040128800008823001100200088
:1023b4000d080700d01f20004012880000052000ef
:1023c4000100200008080700c0df2f004012880029
:1023d400008823001100200003080700cda2a800f4
:1023e40020418000010020000200200003002000a2
:1023f40004a02500252620006033b80061f90700f9
:10240400843e2000050020006033b800f1f8070086
:102414000000be00f4070700cda2a90000052000bb
:1024240001002000f00707000000eb0040128800c4
:102434000005200001002000eb0707000000eb006e
:10244400401288000088230011002000e6070700de
:10245400901f200040128800000520000100200089
:10246400e1070700809f2f004012880000882300a6
:1024740011002000dc070700cda2a8002041800045
:1024840001002000020020000300200004a0250019
:10249400252620006033b8003af90700843e200066
:1024a400050020006033b800caf807000000be0031
:1024b400cd070700cda2a9000005200001002000df
:1024c400c90707000000eb00401288000005200047
:1024d40001002000c40707000000eb004012880040
:1024e4000088230011002000bf070700101f2000f0
:1024f400401288000005200001002000ba070700f0
:10250400001f2f00401288000088230011002000c3
:10251400b5070700cda2a8002041800001002000db
:10252400020020000300200004a02500252620002e
:102534006033b80013f90700843e20000500200032
:102544006033b800a3f807000000be00a607070028
:10255400cda2a9000005200001002000a207070069
:102564000000eb004012880000052000010020005c
:102574009d0707000000eb0040128800008823003c
:102584001100200098070700101e20004012880048
:10259400000520000100200093070700001e2e0004
:1025a4004012880000882300110020008e070700d5
:1025b400cda2a800204180000100200002002000dc
:1025c4000300200004a02500252620006033b80065
:1025d400ecf80700843e2000050020006033b800ba
:1025e4007cf807000000be007f070700cda2a90009
:1025f40000052000010020007b0707000000eb001d
:102604004012880000052000010020007607070022
:102614000000eb0040128800008823001100200015
:1026240071070700101c20004012880000052000dc
:10263400010020006c070700001c2c0040128800d9
:10264400008823001100200067070700cda2a8001e
:10265400204180000100200002002000030020002f
:1026640004a02500252620006033b800c5f8070023
:10267400843e2000050020006033b80055f80700b0
:102684000000be0058070700cda2a90000052000e5
:1026940001002000540707000000eb0040128800ee
:1026a40000052000010020004f0707000000eb0098
:1026b4004012880000882300110020004a07070008
:1026c400101820004012880000052000010020009e
:1026d40045070700001828004012880000882300de
:1026e4001100200040070700cda2a800204180006f
:1026f40001002000020020000300200004a02500a7
:10270400252620006033b8009ef80700843e200090
:10271400050020006033b8002ef807000000be005a
:1027240031070700cda2a900000520000100200008
:102734002d0707000000eb00401288000005200070
:1027440001002000280707000000eb004012880069
:102754000088230011002000230707000000eb007d
:102764004012880000052000010020001e07070019
:102774000000eb00401288000088230011002000b4
:1027840019070700cda2a800204180000100200005
:10279400020020000300200004a0250025262000bc
:1027a4006033b80077f80700843e2000050020005d
:1027b4006033b80007f807000000be000a070700ee
:1027c4001e003700cda2a900000520000100200052
:1027d40005070700100020004012880000052000b3
:1027e40001002000000707000080eb004012880071
:1027f4000088230011002000fb06070000e02e00e3
:10280400401288000005200001002000f6060700a1
:102814000000eb0040128800008823001100200013
:10282400f1060700cda2a800000000000300370055
:102834000000000001003700000000000080fa00e2
:10284400000006000000fa0000482800e101200012
:10285400e5060700cc82a800c502a800c462a8004f
:10286400c442a800d442a800d422a800d402a800dc
:10287400cc62a8000080fa00000006000200fa0002
:10288400004f78001e00fb006101b9000080eb00de
:102894008080eb000200400083804800720020002a
:1028a40003002000820f5000838f580021003e0057
:1028b4000060010007003700090037000b003700f3
:1028c4000d0037000f0037001100370013003700e8
:1028d40015003700cc82a900daff07001e0037007c
:1028e400c502a900d7ff07001b003700c462a90076
:1028f400d4ff070018003700c442a900d1ff070025
:1029040015003700d442a900ceff0700120037009b
:10291400d422a900cbff07000f003700d402a9007e
:10292400c8ff07000c003700cc62a900c5ff0700f0
:1029340009003700cc82a800c502a800c462a80020
:10294400c442a800d442a800d422a800d402a800fb
:10295400cc62a800000000000080fa00000006001d
:102964000000fa000000eb00a00888000080eb00e3
:10297400d00888001fe1a8009660a8000080fa0033
:102984000000060000a0fe003600f800849fbe0090
:10299400869fbe000000fa008760a90018c8bf0027
:1029a400e14f50003e003200504080000000e8003b
:1029b4005040880050408000b1672000810f5000d3
:1029c4001f003200b1672000810f500007003c0057
:1029d40091222000810f50000b003200214520007d
:1029e400810f50000f0032002e003700418a200072
:1029f400810f500019003200f1ac2000810f50000b
:102a04001d0032002700370003c8bf009bff0700ea
:102a140003c8bf0058f9070020c0b30014e8b7008a
:102a24002000370003c8bf0094ff070003c8bf009d
:102a340051f9070030c0b30014e8b700190037009b
:102a440003c8bf008dff070003c8bf004af9070091
:102a540040c0b30014e8b7001200370003c8bf0039
:102a640086ff070003c8bf0043f9070050c0b30046
:102a740014e8b7000b00370003c8bf007fff07004e
:102a840003c8bf003cf907000000eb005040880079
:102a94001fe1a9009660a9000000000001003700b2
:102aa400000000000080fa004f03be004f02be0089
:102ab4003600f9000080fe0000400600809fbe0042
:102ac4000000fa004460a8008420a900000a8000e5
:102ad400d040880002003700000a8000b04188001e
:102ae400100a800070006000e00f5000faff3a0006
:102af400110a800080ff2f0000806000100a880007
:102b040042e1a800110a8000f0f92f0080806000e3
:102b14000002200000807000100a8800110a800062
:102b240080ff2f00008060000010a000100a8800c1
:102b340021058000f0f82f00008060000040a00014
:102b4400200588008420a9009420a8004460a900de
:102b54000080fa004f00be0000400600801f78008d
:102b64000000fa004460a80084a0a900200a8000a4
:102b7400e04088000000eb003008880002003700c5
:102b8400200a8000b0418800300a80007000600094
:102b9400e00f5000faff3a004460a9000080fa00f8
:102ba4004f007800004006000e00fa00000f780085
:102bb40012079800230798003407980045079800e7
:102bc40056079800670798005e019000ee01900098
:102bd4000002eb008000eb000000eb006e04070035
:102be400be0090001e0090008002eb000002eb008b
:102bf40081017800000178009e0078000000eb005d
:102c0400270507003064a8000080fa0000000600d1
:102c14000a00fa00400798000000eb00000f78005b
:102c24000000eb00100798006000b800200798002f
:102c3400310798004e009000304090000080fb0067
:102c4400c400dd00007822000080400010007800fd
:102c5400610f60004e009000304090000080fb0047
:102c6400c400dd00007822000080400010007800dd
:102c740062006000100798001e007800e00f50000a
:102c840012003a004e009000304090000080fb009b
:102c9400c400dd000078220000804000900078002d
:102ca400c0ff2100008060004200de00010020001f
:102cb4004e0190002001980031019800ce00900050
:102cc40040c0b300a0409800610037004e0090005f
:102cd400304090000080fb00c400dd00007822003a
:102ce40000804000100078006101b800c0ff21009e
:102cf40001002000020278000301780080017800be
:102d0400010078000302620000006100010020005d
:102d1400c000dd00000020000001be006120b800fa
:102d24000001710081817100220798003307980027
:102d34002e009000be009000c000dd0000002000c6
:102d44004e01900020019800310198004e0090003f
:102d5400304090000080fb004400dd008080e800eb
:102d64000078220000804000100078006101b80063
:102d7400f0ff200001002000020278000301780027
:102d84008001780001007800030262000000610005
:102d940001002000c000dd00000020000001be0092
:102da4006120b80000017100818171002207980040
:102db400330798004e00900020019000b00190006d
:102dc4002e029000be0290004628dd00ca20de00dc
:102dd400810070004620dd0002004000838048002e
:102de4004e01900020019800310198004e0090009f
:102df400304090000080fb004400dd00e40040000f
:102e04000078220000804000100078004a00de00b4
:102e14000100200020079800310798004e00900020
:102e240020019000b00190002e009000be009000a0
:102e340002004000838048004e0190002001980069
:102e440031019800ce00900030c0b300a04098003b
:102e54001e009000e10f500004003a00ce009000e4
:102e640020c0b300904098006b003700ce00900063
:102e740010c0b300904098004e0090003040900085
:102e84000080fb004400dd00e600400000782200e2
:102e9400008040001000780000407800ce009000d0
:102ea400804898004e009000304090000080fb0065
:102eb4004400dd00e600400000782200008040006d
:102ec400100078004800de0000407800ce0090003a
:102ed400904898004e009000304090000080fb0025
:102ee4004400dd00e800400000782200008040003b
:102ef4001000780000407800ce009000a0489800b0
:102f04004e009000304090000080fb004400dd0043
:102f1400e8004000007822000080400010007800a3
:102f24004800de0000407800ce009000b0489800d1
:102f34004e009000304090000080fb004400dd0013
:102f4400ea00400000782200008040001000780071
:102f540000407800ce009000c04898004e009000d9
:102f6400304090000080fb004400dd00ea00400097
:102f74000078220000804000100078004800de0045
:102f840000407800ce009000d04898004e00900099
:102f9400304090000080fb004400dd00ec00400065
:102fa4000078220000804000100078000040780083
:102fb400ce009000e04898004e0090003040900011
:102fc4000080fb004400dd00ec004000007822009b
:102fd40000804000100078004800de0000407800c7
:102fe400ce009000f04898004e00900030409000d1
:102ff4000080fb004400dd00e40040000078220073
:103004000080400010007800004078006f406000ad
:10301400ce009000805098004e0090002001900057
:10302400b00190002000200001002000800f51001a
:10303400818f590011003a004e00900080489000a2
:1030440000c2b30080cf50000c003a004e00900044
:103054009048900000c5b30080cf500007003a00ac
:1030640010002000104188004e009000304890006d
:103074000080fb0000418800330037004e009000c0
:1030840020019000b00190003000200001002000d9
:10309400800f5100818f590014003a004e009000b7
:1030a4009048900000c2b30080cf50000f003a0057
:1030b4004e00900000489000e14f40000b003a00a1
:1030c4004e00900020489000e24f400007003a0074
:1030d40026002000070020006022b8006011b8001c
:1030e40020002000b0fe0700170037004e009000bb
:1030f40020019000b0019000200020000100200079
:10310400800f5100818f59000f003a004e0090004b
:1031140020489000e14f40000b003a004e00900020
:1031240030489000e14f400007003a00260020009c
:10313400070020006022b8004202200003002000a3
:103144002000200098fe07000080fa00000006001e
:103154000000fa000000eb00200488000000eb00ef
:10316400300488000000eb00400488000000eb00fd
:10317400500488000000eb00600488000080fa001e
:10318400000006003600f800809fbe00829fbe004b
:10319400849fbe00869fbe000000fa008860a900dc
:1031a4005020800061006000e00f500001003200f8
:1031b4000a04a9005020800062006000e00f500063
:1031c4000a0032000021800062006000e00f50001d
:1031d4000300320010c0b3003be8b7002024a9006c
:1031e400808320008afe07000a24a9000080fa00d8
:1031f4004f03be004f02be004f01be004f00be0091
:103204003600f900004006000000fa008480a9009e
:103214000080fa00004006000000fa0085c0a90002
:103224000080fa00004006000000fa008700a900b0
:103234000080fa00004006000000fa008880a9001f
:103244000080fa00004006000000fa00cd02a80049
:10325400801620000100200063040700cd02a900ad
:1032640000142000010020005f0407000080fa0021
:10327400000006000000fa00cd02a900801620001c
:103284000100200058040700cd02a900001420000a
:1032940001002000540407000080fa00000006002a
:1032a4000400fa00100798000000eb00000f7800fb
:1032b40002003700efff07001e0fe8001e00900019
:1032c4009e007800808f5000faff35000080fa00dd
:1032d400000006000400fa00100798000000eb004c
:1032e400000f780002003700d7ff07001e0fe80028
:1032f4001e0090009e007800808f5000faff350079
:103304000080fa00000006000200fa00004f780076
:1033140004c8bf009e40780080cf50000e003a00e1
:10332400a0002000ebff0700c0082000dcff07001e
:1033340040012000e7ff070020082000d8ff070015
:1033440040012000e3ff070020082000d4ff07000d
:1033540060092000dfff070005c8bf009e40780019
:1033640080cf50000e003a00a0002000d9ff0700d3
:10337400c0082000caff0700e0012000d5ff0700b5
:1033840080072000c6ff0700e0012000d1ff0700ee
:1033940080072000c2ff070060092000cdff07005e
:1033a4000080fa00000006000000fa00714080006e
:1033b4009040800000805000704088007140800080
:1033c40080382100808f500007003600c402a80016
:1033d400c422a800cde2a800cdc2a800c4e2a8007f
:1033e400c542a8003c0037007140800000fa20006c
:1033f400808f500007003600c402a800c422a80031
:10340400cde2a800cdc2a800c4e2a800c542a9002c
:10341400310037007140800080bb2000808f500055
:1034240007003600c402a800c422a800cde2a80008
:10343400cdc2a800c4e2a900c542a90026003700f5
:1034440071408000007d2000808f5000070036000e
:10345400c402a800c422a800cde2a800cdc2a900dd
:10346400c4e2a900c542a9001b00370071408000d6
:10347400803e2000808f500007003600c402a80060
:10348400c422a800cde2a900cdc2a900c4e2a900cb
:10349400c542a9001000370070408000e00f5000c2
:1034a40007003200c402a800c422a900cde2a9008a
:1034b400cdc2a900c4e2a900c542a9000600370094
:1034c400c402a900c422a900cde2a900cdc2a9006a
:1034d400c4e2a900c542a9000080fa000000060069
:1034e400809fbe000000fa009116800000022000b8
:1034f40000806000e00f50000600320004c8bf00e6
:103504000ce8b70010c0b30018e8b7001fe1a90029
:103514000a00370051168000000820000080600077
:10352400e00f50000500320005c8bf000ce8b700ea
:1035340010c0b30018e8b7001fe1a9009660a80006
:103544008660a9000080fa004f00be00004006001b
:103554000200fa0047f6070055f50700500307007c
:10356400100307001f0307000000eb00000f7800a2
:103574000b0037000000eb0040128800cda2a80029
:10358400000520000100200097030700cda2a90038
:103594000005200001002000930307001e0fe8002f
:1035a4001e007800e70f5000f2ff3400cda2a900fe
:1035b4000080eb00401288000088230011002000e6
:1035c400890307000080eb00401288000088230074
:1035d40011002000840307000080eb0040128800e3
:1035e40000882300110020007f0307000080eb0007
:1035f4004012880000882300110020007a0307008d
:10360400cda2a800000520000100200076030700d9
:10361400cda2a90002c8bf0098fc070090c0b30067
:1036240055f6070090c0b30053f6070026002000ab
:10363400070020006022b8000212200003002000ce
:103644002000200058fd0700000000001041800009
:10365400e10f5000fdff3a0009c8bf0046f607001d
:10366400e1408000d040800000805000f04088009d
:10367400f1408000c05d2000808f500006003600bd
:10368400f140800070892000808f500002003e00cd
:1036940010c0b30000e8b70010c0b30014e8b700ce
:1036a40000c8bf00e04f50006400320002c8bf00f1
:1036b40031f6070009c8bf002ff607000000eb0031
:1036c400504088000040eb0000e8b7009660a80076
:1036d400a3fc0700000000000cc8bf00e04f50002e
:1036e40005003a00f1088000000028000080600016
:1036f400e00f5000f8ff3a0000d022001113200020
:1037040039030700c18020009140780004c8bf003d
:1037140080cf500009003a0004c8bf0057fc0700de
:1037240004c8bf0014f6070009c8bf0012f607005a
:1037340004c8bf00f4fe070034003700c180200035
:103744009140780005c8bf0080cf500009003a00be
:1037540005c8bf0049fc070005c8bf0006f60700fe
:1037640009c8bf0004f6070005c8bf00e6fe07004d
:10377400260037000cff070001c8bf000000fb0053
:10378400cf80de0026002000070020000002be00db
:1037940002222000030020004000200002fd070058
:1037a40070408000e00f50000f003a0000a0250098
:1037b400212620000c03070007c8bf002ffc0700c8
:1037c40007c8bf00ecf50700360020000700200002
:1037d4006022b80002e22f00f3ff2f002000200037
:1037e400f1fc0700ffff370000a025002126200080
:1037f400fd02070006c8bf0020fc070006c8bf0082
:10380400ddf5070009c8bf00dbf507000040eb0049
:103814000ce8b7000040eb0000e8b7000040eb0004
:1038240018e8b7000000eb00504088000000eb00ef
:10383400d04088000000eb00e0408800b0408000e9
:103844000000e800b040880085ff37002000fa003f
:10385400200f9800320f9800430f9800510f9800e2
:10386400640f9800750f98006000b800008fbe00c8
:103874006000b80020079800310798006000b80085
:1038840040079800510798000004a8002e089000f3
:103894000000400000004000800078000044200048
:1038a40000804000600798002e0890004280de00ef
:1038b40000004000800078000042200000804000aa
:1038c400700798002e0890004380de00000040003e
:1038d400800078008041200000804000000f9800a4
:1038e40040412000100f98005e089000e10f500046
:1038f40049003a003e099000ce099000f0ff2f00e5
:1039040001002000020278000301780080017800a1
:103914000100780003026200000061000100200041
:10392400c000dd00000020000001be006120b800de
:10393400000171008181710022079800330798000b
:103944003e089000ce0890004088de00cf80de0064
:103954000001be00300020000100200002027800b7
:1039640003017800800178000100780003026200fe
:103974000000610001002000c000dd000000200004
:103984000001be006120b800000171008181710056
:1039940042079800530798003e089000ce08900014
:1039a4004288de00cf80de000001be00f07f2000f0
:1039b40001002000020278008301780000017800f1
:1039c4000100780002016200008061000100200013
:1039d400c000dd0000002000008fbe006110b800b0
:1039e4001e1f70001e9770001e007800c500dd00c9
:1039f4004e00900000804000e80040006e009000ff
:103a0400010878006e0090000080e800ae0090008d
:103a140001087800190037003e099000ce09900093
:103a2400f07f20000100200002027800830178006a
:103a3400000178000100780002016200008061004a
:103a440001002000c000dd0000002000008fbe0047
:103a54006110b8001e1f70001e9770001e007800d1
:103a6400c500dd006e009000010878006e00900033
:103a74000080e8008000eb00010878007e009000e0
:103a8400900078002e089000630060004200dd0082
:103a9400f20020000010dd000080ea008080600059
:103aa4007e009000010878002e08900063006000fa
:103ab4004200dd00ee0890008008dd007e009000ea
:103ac40010007800808070007e009000010878006b
:103ad4000e089000900078002e08900067006000a7
:103ae40000004000320020000010dd000080ea00e9
:103af400808060000e089000010878002e08900075
:103b04006700600000004000fe0890008008dd00af
:103b14000e08900010007800808070000e0890005d
:103b240001087800110020002e0890000008dd0034
:103b3400800078001e0890001000780080807000db
:103b44001e089000010878000004a9000080fa0013
:103b5400000006001800fa0070079800020f980091
:103b6400130f9800210f9800340f98006000b800dc
:103b7400008fbe006000b80020079800310798004d
:103b84006000b80040079800510798000004a8009e
:103b94007e0090000000400000004000800078009b
:103ba4000043200000804000600798003e08900019
:103bb400e10f500053003a000e0990009e09900056
:103bc400f0ff2f00010020000202780003017800ba
:103bd40080017800010078000302620000006100a7
:103be40001002000c000dd00000020000001be0034
:103bf4006120b800000171008181710022079800e2
:103c0400330798000e0890009e0890004088de005c
:103c1400cf80de000001be00300020000100200043
:103c24000202780003017800800178000100780026
:103c3400030262000000610001002000c000dd00fa
:103c4400000020000001be006120b80000017100e6
:103c54008181710042079800530798000e08900074
:103c64009e0890004288de00cf80de000001be0086
:103c7400f07f200001002000020278008301780018
:103c840000017800010078000201620000806100f8
:103c940001002000c000dd0000002000008fbe00f5
:103ca4006110b8001e1f70001e9770002e0890004f
:103cb400e10f500008003a001e007800c500dd0046
:103cc4004e00900000804000e80040006e0090002c
:103cd40001087800060037001e007800c500dd00ea
:103ce4004e009000808040006e0090000108780033
:103cf4006e0090000080e800ae009000010878009b
:103d0400220037000e0990009e099000f07f2000e9
:103d1400010020000202780083017800000178008d
:103d240001007800020162000080610001002000af
:103d3400c000dd0000002000008fbe006110b8004c
:103d44001e1f70001e9770002e089000e10f500097
:103d540006003a001e0078004500dd00e80040003f
:103d64006e00900001087800040037001e007800ff
:103d7400c500dd006e009000010878006e00900020
:103d84000080e8008000eb00010878000004a9002e
:103d94000080fa00000006002200fa00400f98009c
:103da400520f9800630f9800710f98000417980041
:103db4006000b800008fbe006000b80020079800c3
:103dc400310798006000b800400798005107980038
:103dd4006000b80060079800710798006000b800a0
:103de400000f9800110f98006000b800200f980091
:103df400310f98007e089000e00f5000460032001a
:103e04005e099000ee099000f003200001002000fc
:103e14000202780003017800800178000100780034
:103e2400030262000000610001002000c000dd0008
:103e3400000020000001be006120b80000017100f4
:103e440081817100020f9800130f98005e089000a2
:103e5400ee0890004a09dd004600de000000710013
:103e6400c688de000001be00f0ff20000100200033
:103e740002027800030178008001780001007800d4
:103e8400030262000000610001002000c000dd00a8
:103e9400000020000001be006120b8000001710094
:103ea40081817100220f9800330f98005e08900002
:103eb400ee0890004288de00cf80de000001be00e4
:103ec400f07f200001002000020278000301780046
:103ed40080017800010078000302620000006100a4
:103ee40001002000c000dd00000020000001be0031
:103ef4006120b8000001710081817100620798009f
:103f0400730798002e089000be08900020079800c0
:103f140031079800130037005e099000ee09900005
:103f2400f07f2000010020000202780003017800e5
:103f34008001780001007800030262000000610043
:103f440001002000c000dd00000020000001be00d0
:103f54006120b8000001710081817100620798003e
:103f6400730798000e109000e10f50001a003a00f9
:103f74006e009000fe0090004209dd00ce01de00dc
:103f8400830171004201dd007e08900001002000e1
:103f940000007100818071000001be000210a000c9
:103fa400028fbe000e0890009e0890004a09dd00b2
:103fb400c601de00830171004a01dd0000202000fb
:103fc400010020000000710081807100400798000a
:103fd40051079800120037006e009000fe00900018
:103fe4004209dd00ce01de00830171004201dd00e3
:103ff4007e08900001002000001f710001977100ed
:104004000e0990009e0990004a18dd00c610de00db
:10401400810070004a10dd004007980051079800a5
:104024007e089000e00f5000090032001e00780066
:10403400800078000110a0004e0890004401dd00cb
:1040440000782200000041000108780006003700d3
:104054009e0078004e0890004401dd0000782200a4
:104064000000410001087800ae0090004e08900066
:104074004401dd002078220000004100010878009e
:10408400ce0090004e0890004401dd0040782200ec
:1040940000004100010878000080fa0000000600da
:1040a4000c00fa00000f780011079800220798000e
:1040b4003307980044079800550798001e007800bd
:1040c4004400dd00e400400000782200008040004d
:1040d4009000780000ff2f00808060001e00900098
:1040e400808040001e0078004401dd0040782200fa
:1040f40000004100010878001e007800c400dd00c3
:104104006078220000804000ae0090000108780032
:104114001e007800c400dd0080782200008040008a
:10412400be009000010878001e007800c400dd0085
:10413400a078220000804000ce00900001087800a2
:104144001e007800c400dd00c0782200008040001a
:10415400de009000010878000080fa0000000600ec
:104164000400fa00100798000004a8004041200051
:10417400000f78001e0078009000780012002000e4
:104184001e0090000010dd000080ea0080806000c6
:104194001e007800010878000004a9000080fa00dd
:1041a400000006000000fa000000eb00001f880079
:1041b40000022200001c880020442000401c8800cb
:1041c40070002000501c880060042000101c88002f
:1041d40000782000201c880081e3a8000080fa00f9
:1041e400000006000000fa000000eb00001f880039
:1041f40000022000c01c880000442000001d88002c
:1042040070002000101d880020022000d01c8800af
:1042140000782000e01c880099e3a8000080fa00e0
:10422400000006000000fa000164a800812080005c
:10423400f0f32f000080600080208800812080003f
:1042440000fc2f008080600070022000008070005d
:10425400802088009120800070fc2f000080600086
:104264009020880012e4a80091208000f08f2f0095
:104274008080600000102000008070009020880082
:104284009120800080ff2f00008060003000b30088
:104294009020880012c4a8000080fa0000000600e4
:1042a4000000fa0001208000f08f2f008080600061
:1042b4000040200000807000002088000000000002
:1042c40001208000000e2000808060000008200093
:1042d400808f5000faff3a00d2ff0700312080009f
:1042e400f0ff210000806000302088008002eb0095
:1042f400140020008000eb006011b80010002000c2
:1043040052fd07000002eb008000eb006011b800d2
:104314000000eb000ffe070001208000f08f2f004b
:104324000080600000208800000000000120800060
:10433400000e200000806000e00f5000fbff3a00f8
:104344000000eb00502188005021800040218800ab
:104354004021800010218800102180000021880065
:1043640030e4a80031e4a900802180003000b300cb
:1043740080218800812180000030200000807000ae
:0c438400802188000080fa000000060084
:020000040000fa
:1043900000080000260000000200000000000100ec
:1043a000020304000506070008000000000070007a
:1043b00017640000e8030000000000000000000097
:1043c00000000000000000000000000028000000c5
:1043d00026080000240000000000000080270000e4
:0c43e00040000000000000000000000091
:020000040000fa
:1043ec00f03fb1000180b10006003500ee0309007a
:1043fc0000000000403fb1000180b100fbff3d0018
:10440c001000b000203fb000020035000080090011
:08441c00000000000000060092
:020000040000fa
:0200000401f009
:04000000cf0000002d
:020000040000fa
:0200000401f009
:04000400cf00000029
:020000040000fa
:0200000401f009
:0400080007000000ed
:020000040000fa
:0200000401f009
:04000c0001000000ef
:020000040000fa
:0200000401f009
:040010008300000069
:020000040000fa
:0200000401f009
:040014005f00000089
:020000040000fa
:0200000401f009
:04001800f7000000ed
:020000040000fa
:0200000401f009
:04001c00dfff000002
:00000001FF
